{
  "_format": "hh-sol-artifact-1",
  "contractName": "TuringVoting",
  "sourceName": "contracts/TuringVoting.sol",
  "abi": [
    {
      "inputs": [],
      "stateMutability": "nonpayable",
      "type": "constructor"
    },
    {
      "inputs": [
        {
          "internalType": "address",
          "name": "spender",
          "type": "address"
        },
        {
          "internalType": "uint256",
          "name": "allowance",
          "type": "uint256"
        },
        {
          "internalType": "uint256",
          "name": "needed",
          "type": "uint256"
        }
      ],
      "name": "ERC20InsufficientAllowance",
      "type": "error"
    },
    {
      "inputs": [
        {
          "internalType": "address",
          "name": "sender",
          "type": "address"
        },
        {
          "internalType": "uint256",
          "name": "balance",
          "type": "uint256"
        },
        {
          "internalType": "uint256",
          "name": "needed",
          "type": "uint256"
        }
      ],
      "name": "ERC20InsufficientBalance",
      "type": "error"
    },
    {
      "inputs": [
        {
          "internalType": "address",
          "name": "approver",
          "type": "address"
        }
      ],
      "name": "ERC20InvalidApprover",
      "type": "error"
    },
    {
      "inputs": [
        {
          "internalType": "address",
          "name": "receiver",
          "type": "address"
        }
      ],
      "name": "ERC20InvalidReceiver",
      "type": "error"
    },
    {
      "inputs": [
        {
          "internalType": "address",
          "name": "sender",
          "type": "address"
        }
      ],
      "name": "ERC20InvalidSender",
      "type": "error"
    },
    {
      "inputs": [
        {
          "internalType": "address",
          "name": "spender",
          "type": "address"
        }
      ],
      "name": "ERC20InvalidSpender",
      "type": "error"
    },
    {
      "anonymous": false,
      "inputs": [
        {
          "indexed": true,
          "internalType": "address",
          "name": "owner",
          "type": "address"
        },
        {
          "indexed": true,
          "internalType": "address",
          "name": "spender",
          "type": "address"
        },
        {
          "indexed": false,
          "internalType": "uint256",
          "name": "value",
          "type": "uint256"
        }
      ],
      "name": "Approval",
      "type": "event"
    },
    {
      "anonymous": false,
      "inputs": [
        {
          "indexed": true,
          "internalType": "address",
          "name": "from",
          "type": "address"
        },
        {
          "indexed": true,
          "internalType": "address",
          "name": "to",
          "type": "address"
        },
        {
          "indexed": false,
          "internalType": "uint256",
          "name": "value",
          "type": "uint256"
        }
      ],
      "name": "Transfer",
      "type": "event"
    },
    {
      "inputs": [
        {
          "internalType": "address",
          "name": "owner",
          "type": "address"
        },
        {
          "internalType": "address",
          "name": "spender",
          "type": "address"
        }
      ],
      "name": "allowance",
      "outputs": [
        {
          "internalType": "uint256",
          "name": "",
          "type": "uint256"
        }
      ],
      "stateMutability": "view",
      "type": "function"
    },
    {
      "inputs": [
        {
          "internalType": "address",
          "name": "spender",
          "type": "address"
        },
        {
          "internalType": "uint256",
          "name": "value",
          "type": "uint256"
        }
      ],
      "name": "approve",
      "outputs": [
        {
          "internalType": "bool",
          "name": "",
          "type": "bool"
        }
      ],
      "stateMutability": "nonpayable",
      "type": "function"
    },
    {
      "inputs": [
        {
          "internalType": "address",
          "name": "account",
          "type": "address"
        }
      ],
      "name": "balanceOf",
      "outputs": [
        {
          "internalType": "uint256",
          "name": "",
          "type": "uint256"
        }
      ],
      "stateMutability": "view",
      "type": "function"
    },
    {
      "inputs": [],
      "name": "decimals",
      "outputs": [
        {
          "internalType": "uint8",
          "name": "",
          "type": "uint8"
        }
      ],
      "stateMutability": "view",
      "type": "function"
    },
    {
      "inputs": [
        {
          "internalType": "string",
          "name": "voterName",
          "type": "string"
        }
      ],
      "name": "getVoterAddress",
      "outputs": [
        {
          "internalType": "address",
          "name": "",
          "type": "address"
        }
      ],
      "stateMutability": "view",
      "type": "function"
    },
    {
      "inputs": [],
      "name": "getVoterNames",
      "outputs": [
        {
          "internalType": "string[]",
          "name": "",
          "type": "string[]"
        }
      ],
      "stateMutability": "view",
      "type": "function"
    },
    {
      "inputs": [
        {
          "internalType": "string",
          "name": "codinome",
          "type": "string"
        },
        {
          "internalType": "uint256",
          "name": "amount",
          "type": "uint256"
        }
      ],
      "name": "issueToken",
      "outputs": [],
      "stateMutability": "nonpayable",
      "type": "function"
    },
    {
      "inputs": [],
      "name": "name",
      "outputs": [
        {
          "internalType": "string",
          "name": "",
          "type": "string"
        }
      ],
      "stateMutability": "view",
      "type": "function"
    },
    {
      "inputs": [],
      "name": "symbol",
      "outputs": [
        {
          "internalType": "string",
          "name": "",
          "type": "string"
        }
      ],
      "stateMutability": "view",
      "type": "function"
    },
    {
      "inputs": [],
      "name": "totalSupply",
      "outputs": [
        {
          "internalType": "uint256",
          "name": "",
          "type": "uint256"
        }
      ],
      "stateMutability": "view",
      "type": "function"
    },
    {
      "inputs": [
        {
          "internalType": "address",
          "name": "to",
          "type": "address"
        },
        {
          "internalType": "uint256",
          "name": "value",
          "type": "uint256"
        }
      ],
      "name": "transfer",
      "outputs": [
        {
          "internalType": "bool",
          "name": "",
          "type": "bool"
        }
      ],
      "stateMutability": "nonpayable",
      "type": "function"
    },
    {
      "inputs": [
        {
          "internalType": "address",
          "name": "from",
          "type": "address"
        },
        {
          "internalType": "address",
          "name": "to",
          "type": "address"
        },
        {
          "internalType": "uint256",
          "name": "value",
          "type": "uint256"
        }
      ],
      "name": "transferFrom",
      "outputs": [
        {
          "internalType": "bool",
          "name": "",
          "type": "bool"
        }
      ],
      "stateMutability": "nonpayable",
      "type": "function"
    },
    {
      "inputs": [
        {
          "internalType": "string",
          "name": "voterName",
          "type": "string"
        },
        {
          "internalType": "uint256",
          "name": "amount",
          "type": "uint256"
        }
      ],
      "name": "vote",
      "outputs": [],
      "stateMutability": "nonpayable",
      "type": "function"
    },
    {
      "inputs": [],
      "name": "votingEnabled",
      "outputs": [
        {
          "internalType": "bool",
          "name": "",
          "type": "bool"
        }
      ],
      "stateMutability": "view",
      "type": "function"
    },
    {
      "inputs": [],
      "name": "votingOff",
      "outputs": [],
      "stateMutability": "nonpayable",
      "type": "function"
    },
    {
      "inputs": [],
      "name": "votingOn",
      "outputs": [],
      "stateMutability": "nonpayable",
      "type": "function"
    }
  ],
  "bytecode": "0x608060405273502542668af09fa7aea52174b9965a7799343df7600660006101000a81548173ffffffffffffffffffffffffffffffffffffffff021916908373ffffffffffffffffffffffffffffffffffffffff1602179055506001600660146101000a81548160ff02191690831515021790555034801561008057600080fd5b506040518060400160405280600c81526020017f547572696e67566f74696e6700000000000000000000000000000000000000008152506040518060400160405280600281526020017f545600000000000000000000000000000000000000000000000000000000000081525081600390816100fc91906111c9565b50806004908161010c91906111c9565b50505033600560006101000a81548173ffffffffffffffffffffffffffffffffffffffff021916908373ffffffffffffffffffffffffffffffffffffffff1602179055506040518061026001604052807370997970c51812dc3a010c7d01b50e0d17dc79c873ffffffffffffffffffffffffffffffffffffffff1673ffffffffffffffffffffffffffffffffffffffff168152602001733c44cdddb6a900fa2b585dd299e03d12fa4293bc73ffffffffffffffffffffffffffffffffffffffff1673ffffffffffffffffffffffffffffffffffffffff1681526020017390f79bf6eb2c4f870365e785982e1f101e93b90673ffffffffffffffffffffffffffffffffffffffff1673ffffffffffffffffffffffffffffffffffffffff1681526020017315d34aaf54267db7d7c367839aaf71a00a2c6a6573ffffffffffffffffffffffffffffffffffffffff1673ffffffffffffffffffffffffffffffffffffffff168152602001739965507d1a55bcc2695c58ba16fb37d819b0a4dc73ffffffffffffffffffffffffffffffffffffffff1673ffffffffffffffffffffffffffffffffffffffff16815260200173976ea74026e726554db657fa54763abd0c3a0aa973ffffffffffffffffffffffffffffffffffffffff1673ffffffffffffffffffffffffffffffffffffffff1681526020017314dc79964da2c08b23698b3d3cc7ca32193d995573ffffffffffffffffffffffffffffffffffffffff1673ffffffffffffffffffffffffffffffffffffffff1681526020017323618e81e3f5cdf7f54c3d65f7fbc0abf5b21e8f73ffffffffffffffffffffffffffffffffffffffff1673ffffffffffffffffffffffffffffffffffffffff16815260200173a0ee7a142d267c1f36714e4a8f75612f20a7972073ffffffffffffffffffffffffffffffffffffffff1673ffffffffffffffffffffffffffffffffffffffff16815260200173bcd4042de499d14e55001ccbb24a551f3b95409673ffffffffffffffffffffffffffffffffffffffff1673ffffffffffffffffffffffffffffffffffffffff1681526020017371be63f3384f5fb98995898a86b02fb2426c578873ffffffffffffffffffffffffffffffffffffffff1673ffffffffffffffffffffffffffffffffffffffff16815260200173fabb0ac9d68b0b445fb7357272ff202c5651694a73ffffffffffffffffffffffffffffffffffffffff1673ffffffffffffffffffffffffffffffffffffffff168152602001731cbd3b2770909d4e10f157cabc84c7264073c9ec73ffffffffffffffffffffffffffffffffffffffff1673ffffffffffffffffffffffffffffffffffffffff16815260200173df3e18d64bc6a983f673ab319ccae4f1a57c709773ffffffffffffffffffffffffffffffffffffffff1673ffffffffffffffffffffffffffffffffffffffff16815260200173cd3b766ccdd6ae721141f452c550ca635964ce7173ffffffffffffffffffffffffffffffffffffffff1673ffffffffffffffffffffffffffffffffffffffff168152602001732546bcd3c84621e976d8185a91a922ae77ecec3073ffffffffffffffffffffffffffffffffffffffff1673ffffffffffffffffffffffffffffffffffffffff16815260200173bda5747bfd65f08deb54cb465eb87d40e51b197e73ffffffffffffffffffffffffffffffffffffffff1673ffffffffffffffffffffffffffffffffffffffff16815260200173dd2fd4581271e230360230f9337d5c0430bf44c073ffffffffffffffffffffffffffffffffffffffff1673ffffffffffffffffffffffffffffffffffffffff168152602001738626f6940e2eb28930efb4cef49b2d1f2c9c119973ffffffffffffffffffffffffffffffffffffffff1673ffffffffffffffffffffffffffffffffffffffff16815250600990601361069c929190610edf565b507370997970c51812dc3a010c7d01b50e0d17dc79c860076040516106c0906112f2565b908152602001604051809103902060006101000a81548173ffffffffffffffffffffffffffffffffffffffff021916908373ffffffffffffffffffffffffffffffffffffffff160217905550733c44cdddb6a900fa2b585dd299e03d12fa4293bc600760405161072f90611353565b908152602001604051809103902060006101000a81548173ffffffffffffffffffffffffffffffffffffffff021916908373ffffffffffffffffffffffffffffffffffffffff1602179055507390f79bf6eb2c4f870365e785982e1f101e93b906600760405161079e906113b4565b908152602001604051809103902060006101000a81548173ffffffffffffffffffffffffffffffffffffffff021916908373ffffffffffffffffffffffffffffffffffffffff1602179055507315d34aaf54267db7d7c367839aaf71a00a2c6a65600760405161080d90611415565b908152602001604051809103902060006101000a81548173ffffffffffffffffffffffffffffffffffffffff021916908373ffffffffffffffffffffffffffffffffffffffff160217905550739965507d1a55bcc2695c58ba16fb37d819b0a4dc600760405161087c90611476565b908152602001604051809103902060006101000a81548173ffffffffffffffffffffffffffffffffffffffff021916908373ffffffffffffffffffffffffffffffffffffffff16021790555073976ea74026e726554db657fa54763abd0c3a0aa960076040516108eb906114d7565b908152602001604051809103902060006101000a81548173ffffffffffffffffffffffffffffffffffffffff021916908373ffffffffffffffffffffffffffffffffffffffff1602179055507314dc79964da2c08b23698b3d3cc7ca32193d9955600760405161095a90611538565b908152602001604051809103902060006101000a81548173ffffffffffffffffffffffffffffffffffffffff021916908373ffffffffffffffffffffffffffffffffffffffff1602179055507323618e81e3f5cdf7f54c3d65f7fbc0abf5b21e8f60076040516109c990611599565b908152602001604051809103902060006101000a81548173ffffffffffffffffffffffffffffffffffffffff021916908373ffffffffffffffffffffffffffffffffffffffff16021790555073a0ee7a142d267c1f36714e4a8f75612f20a797206007604051610a38906115fa565b908152602001604051809103902060006101000a81548173ffffffffffffffffffffffffffffffffffffffff021916908373ffffffffffffffffffffffffffffffffffffffff16021790555073bcd4042de499d14e55001ccbb24a551f3b9540966007604051610aa79061165b565b908152602001604051809103902060006101000a81548173ffffffffffffffffffffffffffffffffffffffff021916908373ffffffffffffffffffffffffffffffffffffffff1602179055507371be63f3384f5fb98995898a86b02fb2426c57886007604051610b16906116bc565b908152602001604051809103902060006101000a81548173ffffffffffffffffffffffffffffffffffffffff021916908373ffffffffffffffffffffffffffffffffffffffff16021790555073fabb0ac9d68b0b445fb7357272ff202c5651694a6007604051610b859061171d565b908152602001604051809103902060006101000a81548173ffffffffffffffffffffffffffffffffffffffff021916908373ffffffffffffffffffffffffffffffffffffffff160217905550731cbd3b2770909d4e10f157cabc84c7264073c9ec6007604051610bf49061177e565b908152602001604051809103902060006101000a81548173ffffffffffffffffffffffffffffffffffffffff021916908373ffffffffffffffffffffffffffffffffffffffff16021790555073df3e18d64bc6a983f673ab319ccae4f1a57c70976007604051610c63906117df565b908152602001604051809103902060006101000a81548173ffffffffffffffffffffffffffffffffffffffff021916908373ffffffffffffffffffffffffffffffffffffffff16021790555073cd3b766ccdd6ae721141f452c550ca635964ce716007604051610cd290611840565b908152602001604051809103902060006101000a81548173ffffffffffffffffffffffffffffffffffffffff021916908373ffffffffffffffffffffffffffffffffffffffff160217905550732546bcd3c84621e976d8185a91a922ae77ecec306007604051610d41906118a1565b908152602001604051809103902060006101000a81548173ffffffffffffffffffffffffffffffffffffffff021916908373ffffffffffffffffffffffffffffffffffffffff16021790555073bda5747bfd65f08deb54cb465eb87d40e51b197e6007604051610db090611902565b908152602001604051809103902060006101000a81548173ffffffffffffffffffffffffffffffffffffffff021916908373ffffffffffffffffffffffffffffffffffffffff16021790555073dd2fd4581271e230360230f9337d5c0430bf44c06007604051610e1f90611963565b908152602001604051809103902060006101000a81548173ffffffffffffffffffffffffffffffffffffffff021916908373ffffffffffffffffffffffffffffffffffffffff160217905550738626f6940e2eb28930efb4cef49b2d1f2c9c11996007604051610e8e906119c4565b908152602001604051809103902060006101000a81548173ffffffffffffffffffffffffffffffffffffffff021916908373ffffffffffffffffffffffffffffffffffffffff1602179055506119d9565b8260138101928215610f4b579160200282015b82811115610f4a5782518260006101000a81548173ffffffffffffffffffffffffffffffffffffffff021916908373ffffffffffffffffffffffffffffffffffffffff16021790555091602001919060010190610ef2565b5b509050610f589190610f5c565b5090565b5b80821115610f75576000816000905550600101610f5d565b5090565b600081519050919050565b7f4e487b7100000000000000000000000000000000000000000000000000000000600052604160045260246000fd5b7f4e487b7100000000000000000000000000000000000000000000000000000000600052602260045260246000fd5b60006002820490506001821680610ffa57607f821691505b60208210810361100d5761100c610fb3565b5b50919050565b60008190508160005260206000209050919050565b60006020601f8301049050919050565b600082821b905092915050565b6000600883026110757fffffffffffffffffffffffffffffffffffffffffffffffffffffffffffffffff82611038565b61107f8683611038565b95508019841693508086168417925050509392505050565b6000819050919050565b6000819050919050565b60006110c66110c16110bc84611097565b6110a1565b611097565b9050919050565b6000819050919050565b6110e0836110ab565b6110f46110ec826110cd565b848454611045565b825550505050565b600090565b6111096110fc565b6111148184846110d7565b505050565b5b818110156111385761112d600082611101565b60018101905061111a565b5050565b601f82111561117d5761114e81611013565b61115784611028565b81016020851015611166578190505b61117a61117285611028565b830182611119565b50505b505050565b600082821c905092915050565b60006111a060001984600802611182565b1980831691505092915050565b60006111b9838361118f565b9150826002028217905092915050565b6111d282610f79565b67ffffffffffffffff8111156111eb576111ea610f84565b5b6111f58254610fe2565b61120082828561113c565b600060209050601f8311600181146112335760008415611221578287015190505b61122b85826111ad565b865550611293565b601f19841661124186611013565b60005b8281101561126957848901518255600182019150602085019450602081019050611244565b868310156112865784890151611282601f89168261118f565b8355505b6001600288020188555050505b505050505050565b600081905092915050565b7f6e6f6d6531000000000000000000000000000000000000000000000000000000600082015250565b60006112dc60058361129b565b91506112e7826112a6565b600582019050919050565b60006112fd826112cf565b9150819050919050565b7f6e6f6d6532000000000000000000000000000000000000000000000000000000600082015250565b600061133d60058361129b565b915061134882611307565b600582019050919050565b600061135e82611330565b9150819050919050565b7f6e6f6d6533000000000000000000000000000000000000000000000000000000600082015250565b600061139e60058361129b565b91506113a982611368565b600582019050919050565b60006113bf82611391565b9150819050919050565b7f6e6f6d6534000000000000000000000000000000000000000000000000000000600082015250565b60006113ff60058361129b565b915061140a826113c9565b600582019050919050565b6000611420826113f2565b9150819050919050565b7f6e6f6d6535000000000000000000000000000000000000000000000000000000600082015250565b600061146060058361129b565b915061146b8261142a565b600582019050919050565b600061148182611453565b9150819050919050565b7f6e6f6d6536000000000000000000000000000000000000000000000000000000600082015250565b60006114c160058361129b565b91506114cc8261148b565b600582019050919050565b60006114e2826114b4565b9150819050919050565b7f6e6f6d6537000000000000000000000000000000000000000000000000000000600082015250565b600061152260058361129b565b915061152d826114ec565b600582019050919050565b600061154382611515565b9150819050919050565b7f6e6f6d6538000000000000000000000000000000000000000000000000000000600082015250565b600061158360058361129b565b915061158e8261154d565b600582019050919050565b60006115a482611576565b9150819050919050565b7f6e6f6d6539000000000000000000000000000000000000000000000000000000600082015250565b60006115e460058361129b565b91506115ef826115ae565b600582019050919050565b6000611605826115d7565b9150819050919050565b7f6e6f6d6531300000000000000000000000000000000000000000000000000000600082015250565b600061164560068361129b565b91506116508261160f565b600682019050919050565b600061166682611638565b9150819050919050565b7f6e6f6d6531310000000000000000000000000000000000000000000000000000600082015250565b60006116a660068361129b565b91506116b182611670565b600682019050919050565b60006116c782611699565b9150819050919050565b7f6e6f6d6531320000000000000000000000000000000000000000000000000000600082015250565b600061170760068361129b565b9150611712826116d1565b600682019050919050565b6000611728826116fa565b9150819050919050565b7f6e6f6d6531330000000000000000000000000000000000000000000000000000600082015250565b600061176860068361129b565b915061177382611732565b600682019050919050565b60006117898261175b565b9150819050919050565b7f6e6f6d6531340000000000000000000000000000000000000000000000000000600082015250565b60006117c960068361129b565b91506117d482611793565b600682019050919050565b60006117ea826117bc565b9150819050919050565b7f6e6f6d6531350000000000000000000000000000000000000000000000000000600082015250565b600061182a60068361129b565b9150611835826117f4565b600682019050919050565b600061184b8261181d565b9150819050919050565b7f6e6f6d6531360000000000000000000000000000000000000000000000000000600082015250565b600061188b60068361129b565b915061189682611855565b600682019050919050565b60006118ac8261187e565b9150819050919050565b7f6e6f6d6531370000000000000000000000000000000000000000000000000000600082015250565b60006118ec60068361129b565b91506118f7826118b6565b600682019050919050565b600061190d826118df565b9150819050919050565b7f6e6f6d6531380000000000000000000000000000000000000000000000000000600082015250565b600061194d60068361129b565b915061195882611917565b600682019050919050565b600061196e82611940565b9150819050919050565b7f6e6f6d6531390000000000000000000000000000000000000000000000000000600082015250565b60006119ae60068361129b565b91506119b982611978565b600682019050919050565b60006119cf826119a1565b9150819050919050565b6126da806119e86000396000f3fe608060405234801561001057600080fd5b50600436106101005760003560e01c806370a0823111610097578063c683e0f411610066578063c683e0f41461028b578063d1e703d6146102a7578063dd62ed3e146102d7578063f0bf00601461030757610100565b806370a08231146101f157806395d89b4114610221578063a63858031461023f578063a9059cbb1461025b57610100565b806323b872dd116100d357806323b872dd1461017b578063313ce567146101ab57806360a3ae06146101c9578063640e1168146101d357610100565b806306fdde0314610105578063095ea7b31461012357806318160ddd1461015357806320949bb414610171575b600080fd5b61010d610325565b60405161011a9190611b6d565b60405180910390f35b61013d60048036038101906101389190611c37565b6103b7565b60405161014a9190611c92565b60405180910390f35b61015b6103da565b6040516101689190611cbc565b60405180910390f35b6101796103e4565b005b61019560048036038101906101909190611cd7565b6104e9565b6040516101a29190611c92565b60405180910390f35b6101b3610518565b6040516101c09190611d46565b60405180910390f35b6101d1610521565b005b6101db610626565b6040516101e89190611c92565b60405180910390f35b61020b60048036038101906102069190611d61565b610639565b6040516102189190611cbc565b60405180910390f35b610229610681565b6040516102369190611b6d565b60405180910390f35b61025960048036038101906102549190611ec3565b610713565b005b61027560048036038101906102709190611c37565b610b3e565b6040516102829190611c92565b60405180910390f35b6102a560048036038101906102a09190611ec3565b610b61565b005b6102c160048036038101906102bc9190611f1f565b610d42565b6040516102ce9190611f77565b60405180910390f35b6102f160048036038101906102ec9190611f92565b610d8a565b6040516102fe9190611cbc565b60405180910390f35b61030f610e11565b60405161031c91906120de565b60405180910390f35b6060600380546103349061212f565b80601f01602080910402602001604051908101604052809291908181526020018280546103609061212f565b80156103ad5780601f10610382576101008083540402835291602001916103ad565b820191906000526020600020905b81548152906001019060200180831161039057829003601f168201915b5050505050905090565b6000806103c26114bc565b90506103cf8185856114c4565b600191505092915050565b6000600254905090565b600560009054906101000a900473ffffffffffffffffffffffffffffffffffffffff1673ffffffffffffffffffffffffffffffffffffffff163373ffffffffffffffffffffffffffffffffffffffff16148061048d5750600660009054906101000a900473ffffffffffffffffffffffffffffffffffffffff1673ffffffffffffffffffffffffffffffffffffffff163373ffffffffffffffffffffffffffffffffffffffff16145b6104cc576040517f08c379a00000000000000000000000000000000000000000000000000000000081526004016104c3906121ac565b60405180910390fd5b6001600660146101000a81548160ff021916908315150217905550565b6000806104f46114bc565b90506105018582856114d6565b61050c85858561156b565b60019150509392505050565b60006012905090565b600560009054906101000a900473ffffffffffffffffffffffffffffffffffffffff1673ffffffffffffffffffffffffffffffffffffffff163373ffffffffffffffffffffffffffffffffffffffff1614806105ca5750600660009054906101000a900473ffffffffffffffffffffffffffffffffffffffff1673ffffffffffffffffffffffffffffffffffffffff163373ffffffffffffffffffffffffffffffffffffffff16145b610609576040517f08c379a0000000000000000000000000000000000000000000000000000000008152600401610600906121ac565b60405180910390fd5b6000600660146101000a81548160ff021916908315150217905550565b600660149054906101000a900460ff1681565b60008060008373ffffffffffffffffffffffffffffffffffffffff1673ffffffffffffffffffffffffffffffffffffffff168152602001908152602001600020549050919050565b6060600480546106909061212f565b80601f01602080910402602001604051908101604052809291908181526020018280546106bc9061212f565b80156107095780601f106106de57610100808354040283529160200191610709565b820191906000526020600020905b8154815290600101906020018083116106ec57829003601f168201915b5050505050905090565b600660149054906101000a900460ff16610762576040517f08c379a000000000000000000000000000000000000000000000000000000000815260040161075990612218565b60405180910390fd5b6000805b60138110156107ed576009816013811061078357610782612238565b5b0160009054906101000a900473ffffffffffffffffffffffffffffffffffffffff1673ffffffffffffffffffffffffffffffffffffffff163373ffffffffffffffffffffffffffffffffffffffff16036107e057600191506107ed565b8080600101915050610766565b508061082e576040517f08c379a0000000000000000000000000000000000000000000000000000000008152600401610825906122b3565b60405180910390fd5b6000600784604051610840919061230f565b908152602001604051809103902060009054906101000a900473ffffffffffffffffffffffffffffffffffffffff169050600073ffffffffffffffffffffffffffffffffffffffff168173ffffffffffffffffffffffffffffffffffffffff16036108e0576040517f08c379a00000000000000000000000000000000000000000000000000000000081526004016108d790612372565b60405180910390fd5b8073ffffffffffffffffffffffffffffffffffffffff163373ffffffffffffffffffffffffffffffffffffffff160361094e576040517f08c379a0000000000000000000000000000000000000000000000000000000008152600401610945906123de565b60405180910390fd5b670de0b6b3a76400006002610963919061242d565b8311156109a5576040517f08c379a000000000000000000000000000000000000000000000000000000000815260040161099c906124bb565b60405180910390fd5b600860003373ffffffffffffffffffffffffffffffffffffffff1673ffffffffffffffffffffffffffffffffffffffff16815260200190815260200160002060008273ffffffffffffffffffffffffffffffffffffffff1673ffffffffffffffffffffffffffffffffffffffff16815260200190815260200160002060009054906101000a900460ff1615610a6f576040517f08c379a0000000000000000000000000000000000000000000000000000000008152600401610a669061254d565b60405180910390fd5b6001600860003373ffffffffffffffffffffffffffffffffffffffff1673ffffffffffffffffffffffffffffffffffffffff16815260200190815260200160002060008373ffffffffffffffffffffffffffffffffffffffff1673ffffffffffffffffffffffffffffffffffffffff16815260200190815260200160002060006101000a81548160ff021916908315150217905550610b0e818461165f565b610b3833600a670de0b6b3a76400006002610b29919061242d565b610b33919061259c565b61165f565b50505050565b600080610b496114bc565b9050610b5681858561156b565b600191505092915050565b600560009054906101000a900473ffffffffffffffffffffffffffffffffffffffff1673ffffffffffffffffffffffffffffffffffffffff163373ffffffffffffffffffffffffffffffffffffffff161480610c0a5750600660009054906101000a900473ffffffffffffffffffffffffffffffffffffffff1673ffffffffffffffffffffffffffffffffffffffff163373ffffffffffffffffffffffffffffffffffffffff16145b610c49576040517f08c379a0000000000000000000000000000000000000000000000000000000008152600401610c40906121ac565b60405180910390fd5b600073ffffffffffffffffffffffffffffffffffffffff16600783604051610c71919061230f565b908152602001604051809103902060009054906101000a900473ffffffffffffffffffffffffffffffffffffffff1673ffffffffffffffffffffffffffffffffffffffff1603610cf6576040517f08c379a0000000000000000000000000000000000000000000000000000000008152600401610ced90612619565b60405180910390fd5b610d3e600783604051610d09919061230f565b908152602001604051809103902060009054906101000a900473ffffffffffffffffffffffffffffffffffffffff168261165f565b5050565b6000600782604051610d54919061230f565b908152602001604051809103902060009054906101000a900473ffffffffffffffffffffffffffffffffffffffff169050919050565b6000600160008473ffffffffffffffffffffffffffffffffffffffff1673ffffffffffffffffffffffffffffffffffffffff16815260200190815260200160002060008373ffffffffffffffffffffffffffffffffffffffff1673ffffffffffffffffffffffffffffffffffffffff16815260200190815260200160002054905092915050565b60606000601367ffffffffffffffff811115610e3057610e2f611d98565b5b604051908082528060200260200182016040528015610e6357816020015b6060815260200190600190039081610e4e5790505b5090506040518060400160405280600581526020017f6e6f6d653100000000000000000000000000000000000000000000000000000081525081600081518110610eb057610eaf612238565b5b60200260200101819052506040518060400160405280600581526020017f6e6f6d653200000000000000000000000000000000000000000000000000000081525081600181518110610f0557610f04612238565b5b60200260200101819052506040518060400160405280600581526020017f6e6f6d653300000000000000000000000000000000000000000000000000000081525081600281518110610f5a57610f59612238565b5b60200260200101819052506040518060400160405280600581526020017f6e6f6d653400000000000000000000000000000000000000000000000000000081525081600381518110610faf57610fae612238565b5b60200260200101819052506040518060400160405280600581526020017f6e6f6d65350000000000000000000000000000000000000000000000000000008152508160048151811061100457611003612238565b5b60200260200101819052506040518060400160405280600581526020017f6e6f6d65360000000000000000000000000000000000000000000000000000008152508160058151811061105957611058612238565b5b60200260200101819052506040518060400160405280600581526020017f6e6f6d6537000000000000000000000000000000000000000000000000000000815250816006815181106110ae576110ad612238565b5b60200260200101819052506040518060400160405280600581526020017f6e6f6d65380000000000000000000000000000000000000000000000000000008152508160078151811061110357611102612238565b5b60200260200101819052506040518060400160405280600581526020017f6e6f6d65390000000000000000000000000000000000000000000000000000008152508160088151811061115857611157612238565b5b60200260200101819052506040518060400160405280600681526020017f6e6f6d6531300000000000000000000000000000000000000000000000000000815250816009815181106111ad576111ac612238565b5b60200260200101819052506040518060400160405280600681526020017f6e6f6d653131000000000000000000000000000000000000000000000000000081525081600a8151811061120257611201612238565b5b60200260200101819052506040518060400160405280600681526020017f6e6f6d653132000000000000000000000000000000000000000000000000000081525081600b8151811061125757611256612238565b5b60200260200101819052506040518060400160405280600681526020017f6e6f6d653133000000000000000000000000000000000000000000000000000081525081600c815181106112ac576112ab612238565b5b60200260200101819052506040518060400160405280600681526020017f6e6f6d653134000000000000000000000000000000000000000000000000000081525081600d8151811061130157611300612238565b5b60200260200101819052506040518060400160405280600681526020017f6e6f6d653135000000000000000000000000000000000000000000000000000081525081600e8151811061135657611355612238565b5b60200260200101819052506040518060400160405280600681526020017f6e6f6d653136000000000000000000000000000000000000000000000000000081525081600f815181106113ab576113aa612238565b5b60200260200101819052506040518060400160405280600681526020017f6e6f6d653137000000000000000000000000000000000000000000000000000081525081601081518110611400576113ff612238565b5b60200260200101819052506040518060400160405280600681526020017f6e6f6d65313800000000000000000000000000000000000000000000000000008152508160118151811061145557611454612238565b5b60200260200101819052506040518060400160405280600681526020017f6e6f6d6531390000000000000000000000000000000000000000000000000000815250816012815181106114aa576114a9612238565b5b60200260200101819052508091505090565b600033905090565b6114d183838360016116e1565b505050565b60006114e28484610d8a565b90507fffffffffffffffffffffffffffffffffffffffffffffffffffffffffffffffff8110156115655781811015611555578281836040517ffb8f41b200000000000000000000000000000000000000000000000000000000815260040161154c93929190612639565b60405180910390fd5b611564848484840360006116e1565b5b50505050565b600073ffffffffffffffffffffffffffffffffffffffff168373ffffffffffffffffffffffffffffffffffffffff16036115dd5760006040517f96c6fd1e0000000000000000000000000000000000000000000000000000000081526004016115d49190611f77565b60405180910390fd5b600073ffffffffffffffffffffffffffffffffffffffff168273ffffffffffffffffffffffffffffffffffffffff160361164f5760006040517fec442f050000000000000000000000000000000000000000000000000000000081526004016116469190611f77565b60405180910390fd5b61165a8383836118b8565b505050565b600073ffffffffffffffffffffffffffffffffffffffff168273ffffffffffffffffffffffffffffffffffffffff16036116d15760006040517fec442f050000000000000000000000000000000000000000000000000000000081526004016116c89190611f77565b60405180910390fd5b6116dd600083836118b8565b5050565b600073ffffffffffffffffffffffffffffffffffffffff168473ffffffffffffffffffffffffffffffffffffffff16036117535760006040517fe602df0500000000000000000000000000000000000000000000000000000000815260040161174a9190611f77565b60405180910390fd5b600073ffffffffffffffffffffffffffffffffffffffff168373ffffffffffffffffffffffffffffffffffffffff16036117c55760006040517f94280d620000000000000000000000000000000000000000000000000000000081526004016117bc9190611f77565b60405180910390fd5b81600160008673ffffffffffffffffffffffffffffffffffffffff1673ffffffffffffffffffffffffffffffffffffffff16815260200190815260200160002060008573ffffffffffffffffffffffffffffffffffffffff1673ffffffffffffffffffffffffffffffffffffffff1681526020019081526020016000208190555080156118b2578273ffffffffffffffffffffffffffffffffffffffff168473ffffffffffffffffffffffffffffffffffffffff167f8c5be1e5ebec7d5bd14f71427d1e84f3dd0314c0f7b2291e5b200ac8c7c3b925846040516118a99190611cbc565b60405180910390a35b50505050565b600073ffffffffffffffffffffffffffffffffffffffff168373ffffffffffffffffffffffffffffffffffffffff160361190a5780600260008282546118fe9190612670565b925050819055506119dd565b60008060008573ffffffffffffffffffffffffffffffffffffffff1673ffffffffffffffffffffffffffffffffffffffff16815260200190815260200160002054905081811015611996578381836040517fe450d38c00000000000000000000000000000000000000000000000000000000815260040161198d93929190612639565b60405180910390fd5b8181036000808673ffffffffffffffffffffffffffffffffffffffff1673ffffffffffffffffffffffffffffffffffffffff16815260200190815260200160002081905550505b600073ffffffffffffffffffffffffffffffffffffffff168273ffffffffffffffffffffffffffffffffffffffff1603611a265780600260008282540392505081905550611a73565b806000808473ffffffffffffffffffffffffffffffffffffffff1673ffffffffffffffffffffffffffffffffffffffff168152602001908152602001600020600082825401925050819055505b8173ffffffffffffffffffffffffffffffffffffffff168373ffffffffffffffffffffffffffffffffffffffff167fddf252ad1be2c89b69c2b068fc378daa952ba7f163c4a11628f55a4df523b3ef83604051611ad09190611cbc565b60405180910390a3505050565b600081519050919050565b600082825260208201905092915050565b60005b83811015611b17578082015181840152602081019050611afc565b60008484015250505050565b6000601f19601f8301169050919050565b6000611b3f82611add565b611b498185611ae8565b9350611b59818560208601611af9565b611b6281611b23565b840191505092915050565b60006020820190508181036000830152611b878184611b34565b905092915050565b6000604051905090565b600080fd5b600080fd5b600073ffffffffffffffffffffffffffffffffffffffff82169050919050565b6000611bce82611ba3565b9050919050565b611bde81611bc3565b8114611be957600080fd5b50565b600081359050611bfb81611bd5565b92915050565b6000819050919050565b611c1481611c01565b8114611c1f57600080fd5b50565b600081359050611c3181611c0b565b92915050565b60008060408385031215611c4e57611c4d611b99565b5b6000611c5c85828601611bec565b9250506020611c6d85828601611c22565b9150509250929050565b60008115159050919050565b611c8c81611c77565b82525050565b6000602082019050611ca76000830184611c83565b92915050565b611cb681611c01565b82525050565b6000602082019050611cd16000830184611cad565b92915050565b600080600060608486031215611cf057611cef611b99565b5b6000611cfe86828701611bec565b9350506020611d0f86828701611bec565b9250506040611d2086828701611c22565b9150509250925092565b600060ff82169050919050565b611d4081611d2a565b82525050565b6000602082019050611d5b6000830184611d37565b92915050565b600060208284031215611d7757611d76611b99565b5b6000611d8584828501611bec565b91505092915050565b600080fd5b600080fd5b7f4e487b7100000000000000000000000000000000000000000000000000000000600052604160045260246000fd5b611dd082611b23565b810181811067ffffffffffffffff82111715611def57611dee611d98565b5b80604052505050565b6000611e02611b8f565b9050611e0e8282611dc7565b919050565b600067ffffffffffffffff821115611e2e57611e2d611d98565b5b611e3782611b23565b9050602081019050919050565b82818337600083830152505050565b6000611e66611e6184611e13565b611df8565b905082815260208101848484011115611e8257611e81611d93565b5b611e8d848285611e44565b509392505050565b600082601f830112611eaa57611ea9611d8e565b5b8135611eba848260208601611e53565b91505092915050565b60008060408385031215611eda57611ed9611b99565b5b600083013567ffffffffffffffff811115611ef857611ef7611b9e565b5b611f0485828601611e95565b9250506020611f1585828601611c22565b9150509250929050565b600060208284031215611f3557611f34611b99565b5b600082013567ffffffffffffffff811115611f5357611f52611b9e565b5b611f5f84828501611e95565b91505092915050565b611f7181611bc3565b82525050565b6000602082019050611f8c6000830184611f68565b92915050565b60008060408385031215611fa957611fa8611b99565b5b6000611fb785828601611bec565b9250506020611fc885828601611bec565b9150509250929050565b600081519050919050565b600082825260208201905092915050565b6000819050602082019050919050565b600082825260208201905092915050565b600061201a82611add565b6120248185611ffe565b9350612034818560208601611af9565b61203d81611b23565b840191505092915050565b6000612054838361200f565b905092915050565b6000602082019050919050565b600061207482611fd2565b61207e8185611fdd565b93508360208202850161209085611fee565b8060005b858110156120cc57848403895281516120ad8582612048565b94506120b88361205c565b925060208a01995050600181019050612094565b50829750879550505050505092915050565b600060208201905081810360008301526120f88184612069565b905092915050565b7f4e487b7100000000000000000000000000000000000000000000000000000000600052602260045260246000fd5b6000600282049050600182168061214757607f821691505b60208210810361215a57612159612100565b5b50919050565b7f556e617574686f72697a65642100000000000000000000000000000000000000600082015250565b6000612196600d83611ae8565b91506121a182612160565b602082019050919050565b600060208201905081810360008301526121c581612189565b9050919050565b7f566f74696e672069732063757272656e746c792064697361626c656421000000600082015250565b6000612202601d83611ae8565b915061220d826121cc565b602082019050919050565b60006020820190508181036000830152612231816121f5565b9050919050565b7f4e487b7100000000000000000000000000000000000000000000000000000000600052603260045260246000fd5b7f596f7520617265206e6f7420616e20617574686f72697a656420766f74657221600082015250565b600061229d602083611ae8565b91506122a882612267565b602082019050919050565b600060208201905081810360008301526122cc81612290565b9050919050565b600081905092915050565b60006122e982611add565b6122f381856122d3565b9350612303818560208601611af9565b80840191505092915050565b600061231b82846122de565b915081905092915050565b7f496e76616c696420766f746572206e616d652100000000000000000000000000600082015250565b600061235c601383611ae8565b915061236782612326565b602082019050919050565b6000602082019050818103600083015261238b8161234f565b9050919050565b7f596f752063616e6e6f7420766f746520666f7220796f757273656c6621000000600082015250565b60006123c8601d83611ae8565b91506123d382612392565b602082019050919050565b600060208201905081810360008301526123f7816123bb565b9050919050565b7f4e487b7100000000000000000000000000000000000000000000000000000000600052601160045260246000fd5b600061243882611c01565b915061244383611c01565b925082820261245181611c01565b91508282048414831517612468576124676123fe565b5b5092915050565b7f566f746520616d6f756e742065786365656473206c696d697421000000000000600082015250565b60006124a5601a83611ae8565b91506124b08261246f565b602082019050919050565b600060208201905081810360008301526124d481612498565b9050919050565b7f596f75206861766520616c726561647920766f74656420666f7220746869732060008201527f7573657221000000000000000000000000000000000000000000000000000000602082015250565b6000612537602583611ae8565b9150612542826124db565b604082019050919050565b600060208201905081810360008301526125668161252a565b9050919050565b7f4e487b7100000000000000000000000000000000000000000000000000000000600052601260045260246000fd5b60006125a782611c01565b91506125b283611c01565b9250826125c2576125c161256d565b5b828204905092915050565b7f496e76616c696420636f64696e6f6d6521000000000000000000000000000000600082015250565b6000612603601183611ae8565b915061260e826125cd565b602082019050919050565b60006020820190508181036000830152612632816125f6565b9050919050565b600060608201905061264e6000830186611f68565b61265b6020830185611cad565b6126686040830184611cad565b949350505050565b600061267b82611c01565b915061268683611c01565b925082820190508082111561269e5761269d6123fe565b5b9291505056fea2646970667358221220b9f90dfcc0d1385705faa5a08ad95a38de3675535fa0caac19a4180827b7d0c064736f6c634300081c0033",
  "linkReferences": {},
  "deployedLinkReferences": {}
}