{
  "_format": "hh-sol-artifact-1",
  "contractName": "TuringVoting",
  "sourceName": "contracts/TuringVoting.sol",
  "abi": [
    {
      "inputs": [],
      "stateMutability": "nonpayable",
      "type": "constructor"
    },
    {
      "inputs": [
        {
          "internalType": "address",
          "name": "spender",
          "type": "address"
        },
        {
          "internalType": "uint256",
          "name": "allowance",
          "type": "uint256"
        },
        {
          "internalType": "uint256",
          "name": "needed",
          "type": "uint256"
        }
      ],
      "name": "ERC20InsufficientAllowance",
      "type": "error"
    },
    {
      "inputs": [
        {
          "internalType": "address",
          "name": "sender",
          "type": "address"
        },
        {
          "internalType": "uint256",
          "name": "balance",
          "type": "uint256"
        },
        {
          "internalType": "uint256",
          "name": "needed",
          "type": "uint256"
        }
      ],
      "name": "ERC20InsufficientBalance",
      "type": "error"
    },
    {
      "inputs": [
        {
          "internalType": "address",
          "name": "approver",
          "type": "address"
        }
      ],
      "name": "ERC20InvalidApprover",
      "type": "error"
    },
    {
      "inputs": [
        {
          "internalType": "address",
          "name": "receiver",
          "type": "address"
        }
      ],
      "name": "ERC20InvalidReceiver",
      "type": "error"
    },
    {
      "inputs": [
        {
          "internalType": "address",
          "name": "sender",
          "type": "address"
        }
      ],
      "name": "ERC20InvalidSender",
      "type": "error"
    },
    {
      "inputs": [
        {
          "internalType": "address",
          "name": "spender",
          "type": "address"
        }
      ],
      "name": "ERC20InvalidSpender",
      "type": "error"
    },
    {
      "anonymous": false,
      "inputs": [
        {
          "indexed": true,
          "internalType": "address",
          "name": "owner",
          "type": "address"
        },
        {
          "indexed": true,
          "internalType": "address",
          "name": "spender",
          "type": "address"
        },
        {
          "indexed": false,
          "internalType": "uint256",
          "name": "value",
          "type": "uint256"
        }
      ],
      "name": "Approval",
      "type": "event"
    },
    {
      "anonymous": false,
      "inputs": [
        {
          "indexed": true,
          "internalType": "address",
          "name": "from",
          "type": "address"
        },
        {
          "indexed": true,
          "internalType": "address",
          "name": "to",
          "type": "address"
        },
        {
          "indexed": false,
          "internalType": "uint256",
          "name": "value",
          "type": "uint256"
        }
      ],
      "name": "Transfer",
      "type": "event"
    },
    {
      "inputs": [
        {
          "internalType": "address",
          "name": "owner",
          "type": "address"
        },
        {
          "internalType": "address",
          "name": "spender",
          "type": "address"
        }
      ],
      "name": "allowance",
      "outputs": [
        {
          "internalType": "uint256",
          "name": "",
          "type": "uint256"
        }
      ],
      "stateMutability": "view",
      "type": "function"
    },
    {
      "inputs": [
        {
          "internalType": "address",
          "name": "spender",
          "type": "address"
        },
        {
          "internalType": "uint256",
          "name": "value",
          "type": "uint256"
        }
      ],
      "name": "approve",
      "outputs": [
        {
          "internalType": "bool",
          "name": "",
          "type": "bool"
        }
      ],
      "stateMutability": "nonpayable",
      "type": "function"
    },
    {
      "inputs": [
        {
          "internalType": "address",
          "name": "account",
          "type": "address"
        }
      ],
      "name": "balanceOf",
      "outputs": [
        {
          "internalType": "uint256",
          "name": "",
          "type": "uint256"
        }
      ],
      "stateMutability": "view",
      "type": "function"
    },
    {
      "inputs": [],
      "name": "decimals",
      "outputs": [
        {
          "internalType": "uint8",
          "name": "",
          "type": "uint8"
        }
      ],
      "stateMutability": "view",
      "type": "function"
    },
    {
      "inputs": [
        {
          "internalType": "string",
          "name": "codinome",
          "type": "string"
        },
        {
          "internalType": "uint256",
          "name": "amount",
          "type": "uint256"
        }
      ],
      "name": "issueToken",
      "outputs": [],
      "stateMutability": "nonpayable",
      "type": "function"
    },
    {
      "inputs": [],
      "name": "name",
      "outputs": [
        {
          "internalType": "string",
          "name": "",
          "type": "string"
        }
      ],
      "stateMutability": "view",
      "type": "function"
    },
    {
      "inputs": [],
      "name": "symbol",
      "outputs": [
        {
          "internalType": "string",
          "name": "",
          "type": "string"
        }
      ],
      "stateMutability": "view",
      "type": "function"
    },
    {
      "inputs": [],
      "name": "totalSupply",
      "outputs": [
        {
          "internalType": "uint256",
          "name": "",
          "type": "uint256"
        }
      ],
      "stateMutability": "view",
      "type": "function"
    },
    {
      "inputs": [
        {
          "internalType": "address",
          "name": "to",
          "type": "address"
        },
        {
          "internalType": "uint256",
          "name": "value",
          "type": "uint256"
        }
      ],
      "name": "transfer",
      "outputs": [
        {
          "internalType": "bool",
          "name": "",
          "type": "bool"
        }
      ],
      "stateMutability": "nonpayable",
      "type": "function"
    },
    {
      "inputs": [
        {
          "internalType": "address",
          "name": "from",
          "type": "address"
        },
        {
          "internalType": "address",
          "name": "to",
          "type": "address"
        },
        {
          "internalType": "uint256",
          "name": "value",
          "type": "uint256"
        }
      ],
      "name": "transferFrom",
      "outputs": [
        {
          "internalType": "bool",
          "name": "",
          "type": "bool"
        }
      ],
      "stateMutability": "nonpayable",
      "type": "function"
    },
    {
      "inputs": [
        {
          "internalType": "string",
          "name": "voterName",
          "type": "string"
        },
        {
          "internalType": "uint256",
          "name": "amount",
          "type": "uint256"
        }
      ],
      "name": "vote",
      "outputs": [],
      "stateMutability": "nonpayable",
      "type": "function"
    },
    {
      "inputs": [],
      "name": "votingEnabled",
      "outputs": [
        {
          "internalType": "bool",
          "name": "",
          "type": "bool"
        }
      ],
      "stateMutability": "view",
      "type": "function"
    },
    {
      "inputs": [],
      "name": "votingOff",
      "outputs": [],
      "stateMutability": "nonpayable",
      "type": "function"
    },
    {
      "inputs": [],
      "name": "votingOn",
      "outputs": [],
      "stateMutability": "nonpayable",
      "type": "function"
    }
  ],
  "bytecode": "0x608060405273502542668af09fa7aea52174b9965a7799343df7600660006101000a81548173ffffffffffffffffffffffffffffffffffffffff021916908373ffffffffffffffffffffffffffffffffffffffff1602179055506001600660146101000a81548160ff02191690831515021790555034801561008057600080fd5b506040518060400160405280600c81526020017f547572696e67566f74696e6700000000000000000000000000000000000000008152506040518060400160405280600281526020017f545600000000000000000000000000000000000000000000000000000000000081525081600390816100fc919061127e565b50806004908161010c919061127e565b50505033600560006101000a81548173ffffffffffffffffffffffffffffffffffffffff021916908373ffffffffffffffffffffffffffffffffffffffff1602179055506040518061028001604052807370997970c51812dc3a010c7d01b50e0d17dc79c873ffffffffffffffffffffffffffffffffffffffff1673ffffffffffffffffffffffffffffffffffffffff168152602001733c44cdddb6a900fa2b585dd299e03d12fa4293bc73ffffffffffffffffffffffffffffffffffffffff1673ffffffffffffffffffffffffffffffffffffffff1681526020017390f79bf6eb2c4f870365e785982e1f101e93b90673ffffffffffffffffffffffffffffffffffffffff1673ffffffffffffffffffffffffffffffffffffffff1681526020017315d34aaf54267db7d7c367839aaf71a00a2c6a6573ffffffffffffffffffffffffffffffffffffffff1673ffffffffffffffffffffffffffffffffffffffff168152602001739965507d1a55bcc2695c58ba16fb37d819b0a4dc73ffffffffffffffffffffffffffffffffffffffff1673ffffffffffffffffffffffffffffffffffffffff16815260200173976ea74026e726554db657fa54763abd0c3a0aa973ffffffffffffffffffffffffffffffffffffffff1673ffffffffffffffffffffffffffffffffffffffff1681526020017314dc79964da2c08b23698b3d3cc7ca32193d995573ffffffffffffffffffffffffffffffffffffffff1673ffffffffffffffffffffffffffffffffffffffff1681526020017323618e81e3f5cdf7f54c3d65f7fbc0abf5b21e8f73ffffffffffffffffffffffffffffffffffffffff1673ffffffffffffffffffffffffffffffffffffffff16815260200173a0ee7a142d267c1f36714e4a8f75612f20a7972073ffffffffffffffffffffffffffffffffffffffff1673ffffffffffffffffffffffffffffffffffffffff16815260200173bcd4042de499d14e55001ccbb24a551f3b95409673ffffffffffffffffffffffffffffffffffffffff1673ffffffffffffffffffffffffffffffffffffffff1681526020017371be63f3384f5fb98995898a86b02fb2426c578873ffffffffffffffffffffffffffffffffffffffff1673ffffffffffffffffffffffffffffffffffffffff16815260200173fabb0ac9d68b0b445fb7357272ff202c5651694a73ffffffffffffffffffffffffffffffffffffffff1673ffffffffffffffffffffffffffffffffffffffff168152602001731cbd3b2770909d4e10f157cabc84c7264073c9ec73ffffffffffffffffffffffffffffffffffffffff1673ffffffffffffffffffffffffffffffffffffffff16815260200173df3e18d64bc6a983f673ab319ccae4f1a57c709773ffffffffffffffffffffffffffffffffffffffff1673ffffffffffffffffffffffffffffffffffffffff16815260200173cd3b766ccdd6ae721141f452c550ca635964ce7173ffffffffffffffffffffffffffffffffffffffff1673ffffffffffffffffffffffffffffffffffffffff168152602001732546bcd3c84621e976d8185a91a922ae77ecec3073ffffffffffffffffffffffffffffffffffffffff1673ffffffffffffffffffffffffffffffffffffffff16815260200173bda5747bfd65f08deb54cb465eb87d40e51b197e73ffffffffffffffffffffffffffffffffffffffff1673ffffffffffffffffffffffffffffffffffffffff16815260200173dd2fd4581271e230360230f9337d5c0430bf44c073ffffffffffffffffffffffffffffffffffffffff1673ffffffffffffffffffffffffffffffffffffffff168152602001738626f6940e2eb28930efb4cef49b2d1f2c9c119973ffffffffffffffffffffffffffffffffffffffff1673ffffffffffffffffffffffffffffffffffffffff16815260200173d72fbb85cc0c36ac0e476b27f6fbd252bae8624a73ffffffffffffffffffffffffffffffffffffffff1673ffffffffffffffffffffffffffffffffffffffff16815250600a9060146106e2929190610f94565b507370997970c51812dc3a010c7d01b50e0d17dc79c86009604051610706906113a7565b908152602001604051809103902060006101000a81548173ffffffffffffffffffffffffffffffffffffffff021916908373ffffffffffffffffffffffffffffffffffffffff160217905550733c44cdddb6a900fa2b585dd299e03d12fa4293bc600960405161077590611408565b908152602001604051809103902060006101000a81548173ffffffffffffffffffffffffffffffffffffffff021916908373ffffffffffffffffffffffffffffffffffffffff1602179055507390f79bf6eb2c4f870365e785982e1f101e93b90660096040516107e490611469565b908152602001604051809103902060006101000a81548173ffffffffffffffffffffffffffffffffffffffff021916908373ffffffffffffffffffffffffffffffffffffffff1602179055507315d34aaf54267db7d7c367839aaf71a00a2c6a656009604051610853906114ca565b908152602001604051809103902060006101000a81548173ffffffffffffffffffffffffffffffffffffffff021916908373ffffffffffffffffffffffffffffffffffffffff160217905550739965507d1a55bcc2695c58ba16fb37d819b0a4dc60096040516108c29061152b565b908152602001604051809103902060006101000a81548173ffffffffffffffffffffffffffffffffffffffff021916908373ffffffffffffffffffffffffffffffffffffffff16021790555073976ea74026e726554db657fa54763abd0c3a0aa960096040516109319061158c565b908152602001604051809103902060006101000a81548173ffffffffffffffffffffffffffffffffffffffff021916908373ffffffffffffffffffffffffffffffffffffffff1602179055507314dc79964da2c08b23698b3d3cc7ca32193d995560096040516109a0906115ed565b908152602001604051809103902060006101000a81548173ffffffffffffffffffffffffffffffffffffffff021916908373ffffffffffffffffffffffffffffffffffffffff1602179055507323618e81e3f5cdf7f54c3d65f7fbc0abf5b21e8f6009604051610a0f9061164e565b908152602001604051809103902060006101000a81548173ffffffffffffffffffffffffffffffffffffffff021916908373ffffffffffffffffffffffffffffffffffffffff16021790555073a0ee7a142d267c1f36714e4a8f75612f20a797206009604051610a7e906116af565b908152602001604051809103902060006101000a81548173ffffffffffffffffffffffffffffffffffffffff021916908373ffffffffffffffffffffffffffffffffffffffff16021790555073bcd4042de499d14e55001ccbb24a551f3b9540966009604051610aed90611710565b908152602001604051809103902060006101000a81548173ffffffffffffffffffffffffffffffffffffffff021916908373ffffffffffffffffffffffffffffffffffffffff1602179055507371be63f3384f5fb98995898a86b02fb2426c57886009604051610b5c90611771565b908152602001604051809103902060006101000a81548173ffffffffffffffffffffffffffffffffffffffff021916908373ffffffffffffffffffffffffffffffffffffffff16021790555073fabb0ac9d68b0b445fb7357272ff202c5651694a6009604051610bcb906117d2565b908152602001604051809103902060006101000a81548173ffffffffffffffffffffffffffffffffffffffff021916908373ffffffffffffffffffffffffffffffffffffffff160217905550731cbd3b2770909d4e10f157cabc84c7264073c9ec6009604051610c3a90611833565b908152602001604051809103902060006101000a81548173ffffffffffffffffffffffffffffffffffffffff021916908373ffffffffffffffffffffffffffffffffffffffff16021790555073df3e18d64bc6a983f673ab319ccae4f1a57c70976009604051610ca990611894565b908152602001604051809103902060006101000a81548173ffffffffffffffffffffffffffffffffffffffff021916908373ffffffffffffffffffffffffffffffffffffffff16021790555073cd3b766ccdd6ae721141f452c550ca635964ce716009604051610d18906118f5565b908152602001604051809103902060006101000a81548173ffffffffffffffffffffffffffffffffffffffff021916908373ffffffffffffffffffffffffffffffffffffffff160217905550732546bcd3c84621e976d8185a91a922ae77ecec306009604051610d8790611956565b908152602001604051809103902060006101000a81548173ffffffffffffffffffffffffffffffffffffffff021916908373ffffffffffffffffffffffffffffffffffffffff16021790555073bda5747bfd65f08deb54cb465eb87d40e51b197e6009604051610df6906119b7565b908152602001604051809103902060006101000a81548173ffffffffffffffffffffffffffffffffffffffff021916908373ffffffffffffffffffffffffffffffffffffffff16021790555073dd2fd4581271e230360230f9337d5c0430bf44c06009604051610e6590611a18565b908152602001604051809103902060006101000a81548173ffffffffffffffffffffffffffffffffffffffff021916908373ffffffffffffffffffffffffffffffffffffffff160217905550738626f6940e2eb28930efb4cef49b2d1f2c9c11996009604051610ed490611a79565b908152602001604051809103902060006101000a81548173ffffffffffffffffffffffffffffffffffffffff021916908373ffffffffffffffffffffffffffffffffffffffff16021790555073d72fbb85cc0c36ac0e476b27f6fbd252bae8624a6009604051610f4390611ada565b908152602001604051809103902060006101000a81548173ffffffffffffffffffffffffffffffffffffffff021916908373ffffffffffffffffffffffffffffffffffffffff160217905550611aef565b8260148101928215611000579160200282015b82811115610fff5782518260006101000a81548173ffffffffffffffffffffffffffffffffffffffff021916908373ffffffffffffffffffffffffffffffffffffffff16021790555091602001919060010190610fa7565b5b50905061100d9190611011565b5090565b5b8082111561102a576000816000905550600101611012565b5090565b600081519050919050565b7f4e487b7100000000000000000000000000000000000000000000000000000000600052604160045260246000fd5b7f4e487b7100000000000000000000000000000000000000000000000000000000600052602260045260246000fd5b600060028204905060018216806110af57607f821691505b6020821081036110c2576110c1611068565b5b50919050565b60008190508160005260206000209050919050565b60006020601f8301049050919050565b600082821b905092915050565b60006008830261112a7fffffffffffffffffffffffffffffffffffffffffffffffffffffffffffffffff826110ed565b61113486836110ed565b95508019841693508086168417925050509392505050565b6000819050919050565b6000819050919050565b600061117b6111766111718461114c565b611156565b61114c565b9050919050565b6000819050919050565b61119583611160565b6111a96111a182611182565b8484546110fa565b825550505050565b600090565b6111be6111b1565b6111c981848461118c565b505050565b5b818110156111ed576111e26000826111b6565b6001810190506111cf565b5050565b601f82111561123257611203816110c8565b61120c846110dd565b8101602085101561121b578190505b61122f611227856110dd565b8301826111ce565b50505b505050565b600082821c905092915050565b600061125560001984600802611237565b1980831691505092915050565b600061126e8383611244565b9150826002028217905092915050565b6112878261102e565b67ffffffffffffffff8111156112a05761129f611039565b5b6112aa8254611097565b6112b58282856111f1565b600060209050601f8311600181146112e857600084156112d6578287015190505b6112e08582611262565b865550611348565b601f1984166112f6866110c8565b60005b8281101561131e578489015182556001820191506020850194506020810190506112f9565b8683101561133b5784890151611337601f891682611244565b8355505b6001600288020188555050505b505050505050565b600081905092915050565b7f6e6f6d6531000000000000000000000000000000000000000000000000000000600082015250565b6000611391600583611350565b915061139c8261135b565b600582019050919050565b60006113b282611384565b9150819050919050565b7f6e6f6d6532000000000000000000000000000000000000000000000000000000600082015250565b60006113f2600583611350565b91506113fd826113bc565b600582019050919050565b6000611413826113e5565b9150819050919050565b7f6e6f6d6533000000000000000000000000000000000000000000000000000000600082015250565b6000611453600583611350565b915061145e8261141d565b600582019050919050565b600061147482611446565b9150819050919050565b7f6e6f6d6534000000000000000000000000000000000000000000000000000000600082015250565b60006114b4600583611350565b91506114bf8261147e565b600582019050919050565b60006114d5826114a7565b9150819050919050565b7f6e6f6d6535000000000000000000000000000000000000000000000000000000600082015250565b6000611515600583611350565b9150611520826114df565b600582019050919050565b600061153682611508565b9150819050919050565b7f6e6f6d6536000000000000000000000000000000000000000000000000000000600082015250565b6000611576600583611350565b915061158182611540565b600582019050919050565b600061159782611569565b9150819050919050565b7f6e6f6d6537000000000000000000000000000000000000000000000000000000600082015250565b60006115d7600583611350565b91506115e2826115a1565b600582019050919050565b60006115f8826115ca565b9150819050919050565b7f6e6f6d6538000000000000000000000000000000000000000000000000000000600082015250565b6000611638600583611350565b915061164382611602565b600582019050919050565b60006116598261162b565b9150819050919050565b7f6e6f6d6539000000000000000000000000000000000000000000000000000000600082015250565b6000611699600583611350565b91506116a482611663565b600582019050919050565b60006116ba8261168c565b9150819050919050565b7f6e6f6d6531300000000000000000000000000000000000000000000000000000600082015250565b60006116fa600683611350565b9150611705826116c4565b600682019050919050565b600061171b826116ed565b9150819050919050565b7f6e6f6d6531310000000000000000000000000000000000000000000000000000600082015250565b600061175b600683611350565b915061176682611725565b600682019050919050565b600061177c8261174e565b9150819050919050565b7f6e6f6d6531320000000000000000000000000000000000000000000000000000600082015250565b60006117bc600683611350565b91506117c782611786565b600682019050919050565b60006117dd826117af565b9150819050919050565b7f6e6f6d6531330000000000000000000000000000000000000000000000000000600082015250565b600061181d600683611350565b9150611828826117e7565b600682019050919050565b600061183e82611810565b9150819050919050565b7f6e6f6d6531340000000000000000000000000000000000000000000000000000600082015250565b600061187e600683611350565b915061188982611848565b600682019050919050565b600061189f82611871565b9150819050919050565b7f6e6f6d6531350000000000000000000000000000000000000000000000000000600082015250565b60006118df600683611350565b91506118ea826118a9565b600682019050919050565b6000611900826118d2565b9150819050919050565b7f6e6f6d6531360000000000000000000000000000000000000000000000000000600082015250565b6000611940600683611350565b915061194b8261190a565b600682019050919050565b600061196182611933565b9150819050919050565b7f6e6f6d6531370000000000000000000000000000000000000000000000000000600082015250565b60006119a1600683611350565b91506119ac8261196b565b600682019050919050565b60006119c282611994565b9150819050919050565b7f6e6f6d6531380000000000000000000000000000000000000000000000000000600082015250565b6000611a02600683611350565b9150611a0d826119cc565b600682019050919050565b6000611a23826119f5565b9150819050919050565b7f6e6f6d6531390000000000000000000000000000000000000000000000000000600082015250565b6000611a63600683611350565b9150611a6e82611a2d565b600682019050919050565b6000611a8482611a56565b9150819050919050565b7f6e6f6d6532300000000000000000000000000000000000000000000000000000600082015250565b6000611ac4600683611350565b9150611acf82611a8e565b600682019050919050565b6000611ae582611ab7565b9150819050919050565b611d6c80611afe6000396000f3fe608060405234801561001057600080fd5b50600436106100ea5760003560e01c8063640e11681161008c578063a638580311610066578063a638580314610229578063a9059cbb14610245578063c683e0f414610275578063dd62ed3e14610291576100ea565b8063640e1168146101bd57806370a08231146101db57806395d89b411461020b576100ea565b806320949bb4116100c857806320949bb41461015b57806323b872dd14610165578063313ce5671461019557806360a3ae06146101b3576100ea565b806306fdde03146100ef578063095ea7b31461010d57806318160ddd1461013d575b600080fd5b6100f76102c1565b604051610104919061139c565b60405180910390f35b61012760048036038101906101229190611466565b610353565b60405161013491906114c1565b60405180910390f35b610145610376565b60405161015291906114eb565b60405180910390f35b610163610380565b005b61017f600480360381019061017a9190611506565b610485565b60405161018c91906114c1565b60405180910390f35b61019d6104b4565b6040516101aa9190611575565b60405180910390f35b6101bb6104bd565b005b6101c56105c2565b6040516101d291906114c1565b60405180910390f35b6101f560048036038101906101f09190611590565b6105d5565b60405161020291906114eb565b60405180910390f35b61021361061d565b604051610220919061139c565b60405180910390f35b610243600480360381019061023e91906116f2565b6106af565b005b61025f600480360381019061025a9190611466565b610a60565b60405161026c91906114c1565b60405180910390f35b61028f600480360381019061028a91906116f2565b610a83565b005b6102ab60048036038101906102a6919061174e565b610c64565b6040516102b891906114eb565b60405180910390f35b6060600380546102d0906117bd565b80601f01602080910402602001604051908101604052809291908181526020018280546102fc906117bd565b80156103495780601f1061031e57610100808354040283529160200191610349565b820191906000526020600020905b81548152906001019060200180831161032c57829003601f168201915b5050505050905090565b60008061035e610ceb565b905061036b818585610cf3565b600191505092915050565b6000600254905090565b600560009054906101000a900473ffffffffffffffffffffffffffffffffffffffff1673ffffffffffffffffffffffffffffffffffffffff163373ffffffffffffffffffffffffffffffffffffffff1614806104295750600660009054906101000a900473ffffffffffffffffffffffffffffffffffffffff1673ffffffffffffffffffffffffffffffffffffffff163373ffffffffffffffffffffffffffffffffffffffff16145b610468576040517f08c379a000000000000000000000000000000000000000000000000000000000815260040161045f9061183a565b60405180910390fd5b6001600660146101000a81548160ff021916908315150217905550565b600080610490610ceb565b905061049d858285610d05565b6104a8858585610d9a565b60019150509392505050565b60006012905090565b600560009054906101000a900473ffffffffffffffffffffffffffffffffffffffff1673ffffffffffffffffffffffffffffffffffffffff163373ffffffffffffffffffffffffffffffffffffffff1614806105665750600660009054906101000a900473ffffffffffffffffffffffffffffffffffffffff1673ffffffffffffffffffffffffffffffffffffffff163373ffffffffffffffffffffffffffffffffffffffff16145b6105a5576040517f08c379a000000000000000000000000000000000000000000000000000000000815260040161059c9061183a565b60405180910390fd5b6000600660146101000a81548160ff021916908315150217905550565b600660149054906101000a900460ff1681565b60008060008373ffffffffffffffffffffffffffffffffffffffff1673ffffffffffffffffffffffffffffffffffffffff168152602001908152602001600020549050919050565b60606004805461062c906117bd565b80601f0160208091040260200160405190810160405280929190818152602001828054610658906117bd565b80156106a55780601f1061067a576101008083540402835291602001916106a5565b820191906000526020600020905b81548152906001019060200180831161068857829003601f168201915b5050505050905090565b600660149054906101000a900460ff166106fe576040517f08c379a00000000000000000000000000000000000000000000000000000000081526004016106f5906118a6565b60405180910390fd5b6000805b601481101561078957600a816014811061071f5761071e6118c6565b5b0160009054906101000a900473ffffffffffffffffffffffffffffffffffffffff1673ffffffffffffffffffffffffffffffffffffffff163373ffffffffffffffffffffffffffffffffffffffff160361077c5760019150610789565b8080600101915050610702565b50806107ca576040517f08c379a00000000000000000000000000000000000000000000000000000000081526004016107c190611941565b60405180910390fd5b60006009846040516107dc919061199d565b908152602001604051809103902060009054906101000a900473ffffffffffffffffffffffffffffffffffffffff169050600073ffffffffffffffffffffffffffffffffffffffff168173ffffffffffffffffffffffffffffffffffffffff160361087c576040517f08c379a000000000000000000000000000000000000000000000000000000000815260040161087390611a00565b60405180910390fd5b8073ffffffffffffffffffffffffffffffffffffffff163373ffffffffffffffffffffffffffffffffffffffff16036108ea576040517f08c379a00000000000000000000000000000000000000000000000000000000081526004016108e190611a6c565b60405180910390fd5b600860003373ffffffffffffffffffffffffffffffffffffffff1673ffffffffffffffffffffffffffffffffffffffff16815260200190815260200160002060009054906101000a900460ff1615610977576040517f08c379a000000000000000000000000000000000000000000000000000000000815260040161096e90611ad8565b60405180910390fd5b670de0b6b3a7640000600261098c9190611b27565b8311156109ce576040517f08c379a00000000000000000000000000000000000000000000000000000000081526004016109c590611bb5565b60405180910390fd5b6109d88184610e8e565b610a0233600a670de0b6b3a764000060026109f39190611b27565b6109fd9190611c04565b610e8e565b6001600860003373ffffffffffffffffffffffffffffffffffffffff1673ffffffffffffffffffffffffffffffffffffffff16815260200190815260200160002060006101000a81548160ff02191690831515021790555050505050565b600080610a6b610ceb565b9050610a78818585610d9a565b600191505092915050565b600560009054906101000a900473ffffffffffffffffffffffffffffffffffffffff1673ffffffffffffffffffffffffffffffffffffffff163373ffffffffffffffffffffffffffffffffffffffff161480610b2c5750600660009054906101000a900473ffffffffffffffffffffffffffffffffffffffff1673ffffffffffffffffffffffffffffffffffffffff163373ffffffffffffffffffffffffffffffffffffffff16145b610b6b576040517f08c379a0000000000000000000000000000000000000000000000000000000008152600401610b629061183a565b60405180910390fd5b600073ffffffffffffffffffffffffffffffffffffffff16600783604051610b93919061199d565b908152602001604051809103902060009054906101000a900473ffffffffffffffffffffffffffffffffffffffff1673ffffffffffffffffffffffffffffffffffffffff1603610c18576040517f08c379a0000000000000000000000000000000000000000000000000000000008152600401610c0f90611c81565b60405180910390fd5b610c60600783604051610c2b919061199d565b908152602001604051809103902060009054906101000a900473ffffffffffffffffffffffffffffffffffffffff1682610e8e565b5050565b6000600160008473ffffffffffffffffffffffffffffffffffffffff1673ffffffffffffffffffffffffffffffffffffffff16815260200190815260200160002060008373ffffffffffffffffffffffffffffffffffffffff1673ffffffffffffffffffffffffffffffffffffffff16815260200190815260200160002054905092915050565b600033905090565b610d008383836001610f10565b505050565b6000610d118484610c64565b90507fffffffffffffffffffffffffffffffffffffffffffffffffffffffffffffffff811015610d945781811015610d84578281836040517ffb8f41b2000000000000000000000000000000000000000000000000000000008152600401610d7b93929190611cb0565b60405180910390fd5b610d9384848484036000610f10565b5b50505050565b600073ffffffffffffffffffffffffffffffffffffffff168373ffffffffffffffffffffffffffffffffffffffff1603610e0c5760006040517f96c6fd1e000000000000000000000000000000000000000000000000000000008152600401610e039190611ce7565b60405180910390fd5b600073ffffffffffffffffffffffffffffffffffffffff168273ffffffffffffffffffffffffffffffffffffffff1603610e7e5760006040517fec442f05000000000000000000000000000000000000000000000000000000008152600401610e759190611ce7565b60405180910390fd5b610e898383836110e7565b505050565b600073ffffffffffffffffffffffffffffffffffffffff168273ffffffffffffffffffffffffffffffffffffffff1603610f005760006040517fec442f05000000000000000000000000000000000000000000000000000000008152600401610ef79190611ce7565b60405180910390fd5b610f0c600083836110e7565b5050565b600073ffffffffffffffffffffffffffffffffffffffff168473ffffffffffffffffffffffffffffffffffffffff1603610f825760006040517fe602df05000000000000000000000000000000000000000000000000000000008152600401610f799190611ce7565b60405180910390fd5b600073ffffffffffffffffffffffffffffffffffffffff168373ffffffffffffffffffffffffffffffffffffffff1603610ff45760006040517f94280d62000000000000000000000000000000000000000000000000000000008152600401610feb9190611ce7565b60405180910390fd5b81600160008673ffffffffffffffffffffffffffffffffffffffff1673ffffffffffffffffffffffffffffffffffffffff16815260200190815260200160002060008573ffffffffffffffffffffffffffffffffffffffff1673ffffffffffffffffffffffffffffffffffffffff1681526020019081526020016000208190555080156110e1578273ffffffffffffffffffffffffffffffffffffffff168473ffffffffffffffffffffffffffffffffffffffff167f8c5be1e5ebec7d5bd14f71427d1e84f3dd0314c0f7b2291e5b200ac8c7c3b925846040516110d891906114eb565b60405180910390a35b50505050565b600073ffffffffffffffffffffffffffffffffffffffff168373ffffffffffffffffffffffffffffffffffffffff160361113957806002600082825461112d9190611d02565b9250508190555061120c565b60008060008573ffffffffffffffffffffffffffffffffffffffff1673ffffffffffffffffffffffffffffffffffffffff168152602001908152602001600020549050818110156111c5578381836040517fe450d38c0000000000000000000000000000000000000000000000000000000081526004016111bc93929190611cb0565b60405180910390fd5b8181036000808673ffffffffffffffffffffffffffffffffffffffff1673ffffffffffffffffffffffffffffffffffffffff16815260200190815260200160002081905550505b600073ffffffffffffffffffffffffffffffffffffffff168273ffffffffffffffffffffffffffffffffffffffff160361125557806002600082825403925050819055506112a2565b806000808473ffffffffffffffffffffffffffffffffffffffff1673ffffffffffffffffffffffffffffffffffffffff168152602001908152602001600020600082825401925050819055505b8173ffffffffffffffffffffffffffffffffffffffff168373ffffffffffffffffffffffffffffffffffffffff167fddf252ad1be2c89b69c2b068fc378daa952ba7f163c4a11628f55a4df523b3ef836040516112ff91906114eb565b60405180910390a3505050565b600081519050919050565b600082825260208201905092915050565b60005b8381101561134657808201518184015260208101905061132b565b60008484015250505050565b6000601f19601f8301169050919050565b600061136e8261130c565b6113788185611317565b9350611388818560208601611328565b61139181611352565b840191505092915050565b600060208201905081810360008301526113b68184611363565b905092915050565b6000604051905090565b600080fd5b600080fd5b600073ffffffffffffffffffffffffffffffffffffffff82169050919050565b60006113fd826113d2565b9050919050565b61140d816113f2565b811461141857600080fd5b50565b60008135905061142a81611404565b92915050565b6000819050919050565b61144381611430565b811461144e57600080fd5b50565b6000813590506114608161143a565b92915050565b6000806040838503121561147d5761147c6113c8565b5b600061148b8582860161141b565b925050602061149c85828601611451565b9150509250929050565b60008115159050919050565b6114bb816114a6565b82525050565b60006020820190506114d660008301846114b2565b92915050565b6114e581611430565b82525050565b600060208201905061150060008301846114dc565b92915050565b60008060006060848603121561151f5761151e6113c8565b5b600061152d8682870161141b565b935050602061153e8682870161141b565b925050604061154f86828701611451565b9150509250925092565b600060ff82169050919050565b61156f81611559565b82525050565b600060208201905061158a6000830184611566565b92915050565b6000602082840312156115a6576115a56113c8565b5b60006115b48482850161141b565b91505092915050565b600080fd5b600080fd5b7f4e487b7100000000000000000000000000000000000000000000000000000000600052604160045260246000fd5b6115ff82611352565b810181811067ffffffffffffffff8211171561161e5761161d6115c7565b5b80604052505050565b60006116316113be565b905061163d82826115f6565b919050565b600067ffffffffffffffff82111561165d5761165c6115c7565b5b61166682611352565b9050602081019050919050565b82818337600083830152505050565b600061169561169084611642565b611627565b9050828152602081018484840111156116b1576116b06115c2565b5b6116bc848285611673565b509392505050565b600082601f8301126116d9576116d86115bd565b5b81356116e9848260208601611682565b91505092915050565b60008060408385031215611709576117086113c8565b5b600083013567ffffffffffffffff811115611727576117266113cd565b5b611733858286016116c4565b925050602061174485828601611451565b9150509250929050565b60008060408385031215611765576117646113c8565b5b60006117738582860161141b565b92505060206117848582860161141b565b9150509250929050565b7f4e487b7100000000000000000000000000000000000000000000000000000000600052602260045260246000fd5b600060028204905060018216806117d557607f821691505b6020821081036117e8576117e761178e565b5b50919050565b7f556e617574686f72697a65642100000000000000000000000000000000000000600082015250565b6000611824600d83611317565b915061182f826117ee565b602082019050919050565b6000602082019050818103600083015261185381611817565b9050919050565b7f566f74696e672069732063757272656e746c792064697361626c656421000000600082015250565b6000611890601d83611317565b915061189b8261185a565b602082019050919050565b600060208201905081810360008301526118bf81611883565b9050919050565b7f4e487b7100000000000000000000000000000000000000000000000000000000600052603260045260246000fd5b7f596f7520617265206e6f7420616e20617574686f72697a656420766f74657221600082015250565b600061192b602083611317565b9150611936826118f5565b602082019050919050565b6000602082019050818103600083015261195a8161191e565b9050919050565b600081905092915050565b60006119778261130c565b6119818185611961565b9350611991818560208601611328565b80840191505092915050565b60006119a9828461196c565b915081905092915050565b7f496e76616c696420766f746572206e616d652100000000000000000000000000600082015250565b60006119ea601383611317565b91506119f5826119b4565b602082019050919050565b60006020820190508181036000830152611a19816119dd565b9050919050565b7f596f752063616e6e6f7420766f746520666f7220796f757273656c6621000000600082015250565b6000611a56601d83611317565b9150611a6182611a20565b602082019050919050565b60006020820190508181036000830152611a8581611a49565b9050919050565b7f596f75206861766520616c726561647920766f74656421000000000000000000600082015250565b6000611ac2601783611317565b9150611acd82611a8c565b602082019050919050565b60006020820190508181036000830152611af181611ab5565b9050919050565b7f4e487b7100000000000000000000000000000000000000000000000000000000600052601160045260246000fd5b6000611b3282611430565b9150611b3d83611430565b9250828202611b4b81611430565b91508282048414831517611b6257611b61611af8565b5b5092915050565b7f566f746520616d6f756e742065786365656473206c696d697421000000000000600082015250565b6000611b9f601a83611317565b9150611baa82611b69565b602082019050919050565b60006020820190508181036000830152611bce81611b92565b9050919050565b7f4e487b7100000000000000000000000000000000000000000000000000000000600052601260045260246000fd5b6000611c0f82611430565b9150611c1a83611430565b925082611c2a57611c29611bd5565b5b828204905092915050565b7f496e76616c696420636f64696e6f6d6521000000000000000000000000000000600082015250565b6000611c6b601183611317565b9150611c7682611c35565b602082019050919050565b60006020820190508181036000830152611c9a81611c5e565b9050919050565b611caa816113f2565b82525050565b6000606082019050611cc56000830186611ca1565b611cd260208301856114dc565b611cdf60408301846114dc565b949350505050565b6000602082019050611cfc6000830184611ca1565b92915050565b6000611d0d82611430565b9150611d1883611430565b9250828201905080821115611d3057611d2f611af8565b5b9291505056fea2646970667358221220a9a92ed8803759a43616bd8e4d6fdcdbf41778b78c08ca42428be23b6e87028064736f6c634300081c0033",
  "linkReferences": {},
  "deployedLinkReferences": {}
}