{
  "_format": "hh-sol-artifact-1",
  "contractName": "TuringVoting",
  "sourceName": "contracts/TuringVoting.sol",
  "abi": [
    {
      "inputs": [],
      "stateMutability": "nonpayable",
      "type": "constructor"
    },
    {
      "inputs": [
        {
          "internalType": "address",
          "name": "spender",
          "type": "address"
        },
        {
          "internalType": "uint256",
          "name": "allowance",
          "type": "uint256"
        },
        {
          "internalType": "uint256",
          "name": "needed",
          "type": "uint256"
        }
      ],
      "name": "ERC20InsufficientAllowance",
      "type": "error"
    },
    {
      "inputs": [
        {
          "internalType": "address",
          "name": "sender",
          "type": "address"
        },
        {
          "internalType": "uint256",
          "name": "balance",
          "type": "uint256"
        },
        {
          "internalType": "uint256",
          "name": "needed",
          "type": "uint256"
        }
      ],
      "name": "ERC20InsufficientBalance",
      "type": "error"
    },
    {
      "inputs": [
        {
          "internalType": "address",
          "name": "approver",
          "type": "address"
        }
      ],
      "name": "ERC20InvalidApprover",
      "type": "error"
    },
    {
      "inputs": [
        {
          "internalType": "address",
          "name": "receiver",
          "type": "address"
        }
      ],
      "name": "ERC20InvalidReceiver",
      "type": "error"
    },
    {
      "inputs": [
        {
          "internalType": "address",
          "name": "sender",
          "type": "address"
        }
      ],
      "name": "ERC20InvalidSender",
      "type": "error"
    },
    {
      "inputs": [
        {
          "internalType": "address",
          "name": "spender",
          "type": "address"
        }
      ],
      "name": "ERC20InvalidSpender",
      "type": "error"
    },
    {
      "anonymous": false,
      "inputs": [
        {
          "indexed": true,
          "internalType": "address",
          "name": "owner",
          "type": "address"
        },
        {
          "indexed": true,
          "internalType": "address",
          "name": "spender",
          "type": "address"
        },
        {
          "indexed": false,
          "internalType": "uint256",
          "name": "value",
          "type": "uint256"
        }
      ],
      "name": "Approval",
      "type": "event"
    },
    {
      "anonymous": false,
      "inputs": [
        {
          "indexed": true,
          "internalType": "address",
          "name": "from",
          "type": "address"
        },
        {
          "indexed": true,
          "internalType": "address",
          "name": "to",
          "type": "address"
        },
        {
          "indexed": false,
          "internalType": "uint256",
          "name": "value",
          "type": "uint256"
        }
      ],
      "name": "Transfer",
      "type": "event"
    },
    {
      "inputs": [
        {
          "internalType": "address",
          "name": "owner",
          "type": "address"
        },
        {
          "internalType": "address",
          "name": "spender",
          "type": "address"
        }
      ],
      "name": "allowance",
      "outputs": [
        {
          "internalType": "uint256",
          "name": "",
          "type": "uint256"
        }
      ],
      "stateMutability": "view",
      "type": "function"
    },
    {
      "inputs": [
        {
          "internalType": "address",
          "name": "spender",
          "type": "address"
        },
        {
          "internalType": "uint256",
          "name": "value",
          "type": "uint256"
        }
      ],
      "name": "approve",
      "outputs": [
        {
          "internalType": "bool",
          "name": "",
          "type": "bool"
        }
      ],
      "stateMutability": "nonpayable",
      "type": "function"
    },
    {
      "inputs": [
        {
          "internalType": "address",
          "name": "account",
          "type": "address"
        }
      ],
      "name": "balanceOf",
      "outputs": [
        {
          "internalType": "uint256",
          "name": "",
          "type": "uint256"
        }
      ],
      "stateMutability": "view",
      "type": "function"
    },
    {
      "inputs": [],
      "name": "decimals",
      "outputs": [
        {
          "internalType": "uint8",
          "name": "",
          "type": "uint8"
        }
      ],
      "stateMutability": "view",
      "type": "function"
    },
    {
      "inputs": [
        {
          "internalType": "string",
          "name": "voterName",
          "type": "string"
        }
      ],
      "name": "getVoterAddress",
      "outputs": [
        {
          "internalType": "address",
          "name": "",
          "type": "address"
        }
      ],
      "stateMutability": "view",
      "type": "function"
    },
    {
      "inputs": [
        {
          "internalType": "string",
          "name": "codinome",
          "type": "string"
        },
        {
          "internalType": "uint256",
          "name": "amount",
          "type": "uint256"
        }
      ],
      "name": "issueToken",
      "outputs": [],
      "stateMutability": "nonpayable",
      "type": "function"
    },
    {
      "inputs": [],
      "name": "name",
      "outputs": [
        {
          "internalType": "string",
          "name": "",
          "type": "string"
        }
      ],
      "stateMutability": "view",
      "type": "function"
    },
    {
      "inputs": [],
      "name": "symbol",
      "outputs": [
        {
          "internalType": "string",
          "name": "",
          "type": "string"
        }
      ],
      "stateMutability": "view",
      "type": "function"
    },
    {
      "inputs": [],
      "name": "totalSupply",
      "outputs": [
        {
          "internalType": "uint256",
          "name": "",
          "type": "uint256"
        }
      ],
      "stateMutability": "view",
      "type": "function"
    },
    {
      "inputs": [
        {
          "internalType": "address",
          "name": "to",
          "type": "address"
        },
        {
          "internalType": "uint256",
          "name": "value",
          "type": "uint256"
        }
      ],
      "name": "transfer",
      "outputs": [
        {
          "internalType": "bool",
          "name": "",
          "type": "bool"
        }
      ],
      "stateMutability": "nonpayable",
      "type": "function"
    },
    {
      "inputs": [
        {
          "internalType": "address",
          "name": "from",
          "type": "address"
        },
        {
          "internalType": "address",
          "name": "to",
          "type": "address"
        },
        {
          "internalType": "uint256",
          "name": "value",
          "type": "uint256"
        }
      ],
      "name": "transferFrom",
      "outputs": [
        {
          "internalType": "bool",
          "name": "",
          "type": "bool"
        }
      ],
      "stateMutability": "nonpayable",
      "type": "function"
    },
    {
      "inputs": [
        {
          "internalType": "string",
          "name": "voterName",
          "type": "string"
        },
        {
          "internalType": "uint256",
          "name": "amount",
          "type": "uint256"
        }
      ],
      "name": "vote",
      "outputs": [],
      "stateMutability": "nonpayable",
      "type": "function"
    },
    {
      "inputs": [],
      "name": "votingEnabled",
      "outputs": [
        {
          "internalType": "bool",
          "name": "",
          "type": "bool"
        }
      ],
      "stateMutability": "view",
      "type": "function"
    },
    {
      "inputs": [],
      "name": "votingOff",
      "outputs": [],
      "stateMutability": "nonpayable",
      "type": "function"
    },
    {
      "inputs": [],
      "name": "votingOn",
      "outputs": [],
      "stateMutability": "nonpayable",
      "type": "function"
    }
  ],
  "bytecode": "0x608060405273502542668af09fa7aea52174b9965a7799343df7600660006101000a81548173ffffffffffffffffffffffffffffffffffffffff021916908373ffffffffffffffffffffffffffffffffffffffff1602179055506001600660146101000a81548160ff02191690831515021790555034801561008057600080fd5b506040518060400160405280600c81526020017f547572696e67566f74696e6700000000000000000000000000000000000000008152506040518060400160405280600281526020017f545600000000000000000000000000000000000000000000000000000000000081525081600390816100fc91906111c9565b50806004908161010c91906111c9565b50505033600560006101000a81548173ffffffffffffffffffffffffffffffffffffffff021916908373ffffffffffffffffffffffffffffffffffffffff1602179055506040518061026001604052807370997970c51812dc3a010c7d01b50e0d17dc79c873ffffffffffffffffffffffffffffffffffffffff1673ffffffffffffffffffffffffffffffffffffffff168152602001733c44cdddb6a900fa2b585dd299e03d12fa4293bc73ffffffffffffffffffffffffffffffffffffffff1673ffffffffffffffffffffffffffffffffffffffff1681526020017390f79bf6eb2c4f870365e785982e1f101e93b90673ffffffffffffffffffffffffffffffffffffffff1673ffffffffffffffffffffffffffffffffffffffff1681526020017315d34aaf54267db7d7c367839aaf71a00a2c6a6573ffffffffffffffffffffffffffffffffffffffff1673ffffffffffffffffffffffffffffffffffffffff168152602001739965507d1a55bcc2695c58ba16fb37d819b0a4dc73ffffffffffffffffffffffffffffffffffffffff1673ffffffffffffffffffffffffffffffffffffffff16815260200173976ea74026e726554db657fa54763abd0c3a0aa973ffffffffffffffffffffffffffffffffffffffff1673ffffffffffffffffffffffffffffffffffffffff1681526020017314dc79964da2c08b23698b3d3cc7ca32193d995573ffffffffffffffffffffffffffffffffffffffff1673ffffffffffffffffffffffffffffffffffffffff1681526020017323618e81e3f5cdf7f54c3d65f7fbc0abf5b21e8f73ffffffffffffffffffffffffffffffffffffffff1673ffffffffffffffffffffffffffffffffffffffff16815260200173a0ee7a142d267c1f36714e4a8f75612f20a7972073ffffffffffffffffffffffffffffffffffffffff1673ffffffffffffffffffffffffffffffffffffffff16815260200173bcd4042de499d14e55001ccbb24a551f3b95409673ffffffffffffffffffffffffffffffffffffffff1673ffffffffffffffffffffffffffffffffffffffff1681526020017371be63f3384f5fb98995898a86b02fb2426c578873ffffffffffffffffffffffffffffffffffffffff1673ffffffffffffffffffffffffffffffffffffffff16815260200173fabb0ac9d68b0b445fb7357272ff202c5651694a73ffffffffffffffffffffffffffffffffffffffff1673ffffffffffffffffffffffffffffffffffffffff168152602001731cbd3b2770909d4e10f157cabc84c7264073c9ec73ffffffffffffffffffffffffffffffffffffffff1673ffffffffffffffffffffffffffffffffffffffff16815260200173df3e18d64bc6a983f673ab319ccae4f1a57c709773ffffffffffffffffffffffffffffffffffffffff1673ffffffffffffffffffffffffffffffffffffffff16815260200173cd3b766ccdd6ae721141f452c550ca635964ce7173ffffffffffffffffffffffffffffffffffffffff1673ffffffffffffffffffffffffffffffffffffffff168152602001732546bcd3c84621e976d8185a91a922ae77ecec3073ffffffffffffffffffffffffffffffffffffffff1673ffffffffffffffffffffffffffffffffffffffff16815260200173bda5747bfd65f08deb54cb465eb87d40e51b197e73ffffffffffffffffffffffffffffffffffffffff1673ffffffffffffffffffffffffffffffffffffffff16815260200173dd2fd4581271e230360230f9337d5c0430bf44c073ffffffffffffffffffffffffffffffffffffffff1673ffffffffffffffffffffffffffffffffffffffff168152602001738626f6940e2eb28930efb4cef49b2d1f2c9c119973ffffffffffffffffffffffffffffffffffffffff1673ffffffffffffffffffffffffffffffffffffffff16815250600a90601361069c929190610edf565b507370997970c51812dc3a010c7d01b50e0d17dc79c860096040516106c0906112f2565b908152602001604051809103902060006101000a81548173ffffffffffffffffffffffffffffffffffffffff021916908373ffffffffffffffffffffffffffffffffffffffff160217905550733c44cdddb6a900fa2b585dd299e03d12fa4293bc600960405161072f90611353565b908152602001604051809103902060006101000a81548173ffffffffffffffffffffffffffffffffffffffff021916908373ffffffffffffffffffffffffffffffffffffffff1602179055507390f79bf6eb2c4f870365e785982e1f101e93b906600960405161079e906113b4565b908152602001604051809103902060006101000a81548173ffffffffffffffffffffffffffffffffffffffff021916908373ffffffffffffffffffffffffffffffffffffffff1602179055507315d34aaf54267db7d7c367839aaf71a00a2c6a65600960405161080d90611415565b908152602001604051809103902060006101000a81548173ffffffffffffffffffffffffffffffffffffffff021916908373ffffffffffffffffffffffffffffffffffffffff160217905550739965507d1a55bcc2695c58ba16fb37d819b0a4dc600960405161087c90611476565b908152602001604051809103902060006101000a81548173ffffffffffffffffffffffffffffffffffffffff021916908373ffffffffffffffffffffffffffffffffffffffff16021790555073976ea74026e726554db657fa54763abd0c3a0aa960096040516108eb906114d7565b908152602001604051809103902060006101000a81548173ffffffffffffffffffffffffffffffffffffffff021916908373ffffffffffffffffffffffffffffffffffffffff1602179055507314dc79964da2c08b23698b3d3cc7ca32193d9955600960405161095a90611538565b908152602001604051809103902060006101000a81548173ffffffffffffffffffffffffffffffffffffffff021916908373ffffffffffffffffffffffffffffffffffffffff1602179055507323618e81e3f5cdf7f54c3d65f7fbc0abf5b21e8f60096040516109c990611599565b908152602001604051809103902060006101000a81548173ffffffffffffffffffffffffffffffffffffffff021916908373ffffffffffffffffffffffffffffffffffffffff16021790555073a0ee7a142d267c1f36714e4a8f75612f20a797206009604051610a38906115fa565b908152602001604051809103902060006101000a81548173ffffffffffffffffffffffffffffffffffffffff021916908373ffffffffffffffffffffffffffffffffffffffff16021790555073bcd4042de499d14e55001ccbb24a551f3b9540966009604051610aa79061165b565b908152602001604051809103902060006101000a81548173ffffffffffffffffffffffffffffffffffffffff021916908373ffffffffffffffffffffffffffffffffffffffff1602179055507371be63f3384f5fb98995898a86b02fb2426c57886009604051610b16906116bc565b908152602001604051809103902060006101000a81548173ffffffffffffffffffffffffffffffffffffffff021916908373ffffffffffffffffffffffffffffffffffffffff16021790555073fabb0ac9d68b0b445fb7357272ff202c5651694a6009604051610b859061171d565b908152602001604051809103902060006101000a81548173ffffffffffffffffffffffffffffffffffffffff021916908373ffffffffffffffffffffffffffffffffffffffff160217905550731cbd3b2770909d4e10f157cabc84c7264073c9ec6009604051610bf49061177e565b908152602001604051809103902060006101000a81548173ffffffffffffffffffffffffffffffffffffffff021916908373ffffffffffffffffffffffffffffffffffffffff16021790555073df3e18d64bc6a983f673ab319ccae4f1a57c70976009604051610c63906117df565b908152602001604051809103902060006101000a81548173ffffffffffffffffffffffffffffffffffffffff021916908373ffffffffffffffffffffffffffffffffffffffff16021790555073cd3b766ccdd6ae721141f452c550ca635964ce716009604051610cd290611840565b908152602001604051809103902060006101000a81548173ffffffffffffffffffffffffffffffffffffffff021916908373ffffffffffffffffffffffffffffffffffffffff160217905550732546bcd3c84621e976d8185a91a922ae77ecec306009604051610d41906118a1565b908152602001604051809103902060006101000a81548173ffffffffffffffffffffffffffffffffffffffff021916908373ffffffffffffffffffffffffffffffffffffffff16021790555073bda5747bfd65f08deb54cb465eb87d40e51b197e6009604051610db090611902565b908152602001604051809103902060006101000a81548173ffffffffffffffffffffffffffffffffffffffff021916908373ffffffffffffffffffffffffffffffffffffffff16021790555073dd2fd4581271e230360230f9337d5c0430bf44c06009604051610e1f90611963565b908152602001604051809103902060006101000a81548173ffffffffffffffffffffffffffffffffffffffff021916908373ffffffffffffffffffffffffffffffffffffffff160217905550738626f6940e2eb28930efb4cef49b2d1f2c9c11996009604051610e8e906119c4565b908152602001604051809103902060006101000a81548173ffffffffffffffffffffffffffffffffffffffff021916908373ffffffffffffffffffffffffffffffffffffffff1602179055506119d9565b8260138101928215610f4b579160200282015b82811115610f4a5782518260006101000a81548173ffffffffffffffffffffffffffffffffffffffff021916908373ffffffffffffffffffffffffffffffffffffffff16021790555091602001919060010190610ef2565b5b509050610f589190610f5c565b5090565b5b80821115610f75576000816000905550600101610f5d565b5090565b600081519050919050565b7f4e487b7100000000000000000000000000000000000000000000000000000000600052604160045260246000fd5b7f4e487b7100000000000000000000000000000000000000000000000000000000600052602260045260246000fd5b60006002820490506001821680610ffa57607f821691505b60208210810361100d5761100c610fb3565b5b50919050565b60008190508160005260206000209050919050565b60006020601f8301049050919050565b600082821b905092915050565b6000600883026110757fffffffffffffffffffffffffffffffffffffffffffffffffffffffffffffffff82611038565b61107f8683611038565b95508019841693508086168417925050509392505050565b6000819050919050565b6000819050919050565b60006110c66110c16110bc84611097565b6110a1565b611097565b9050919050565b6000819050919050565b6110e0836110ab565b6110f46110ec826110cd565b848454611045565b825550505050565b600090565b6111096110fc565b6111148184846110d7565b505050565b5b818110156111385761112d600082611101565b60018101905061111a565b5050565b601f82111561117d5761114e81611013565b61115784611028565b81016020851015611166578190505b61117a61117285611028565b830182611119565b50505b505050565b600082821c905092915050565b60006111a060001984600802611182565b1980831691505092915050565b60006111b9838361118f565b9150826002028217905092915050565b6111d282610f79565b67ffffffffffffffff8111156111eb576111ea610f84565b5b6111f58254610fe2565b61120082828561113c565b600060209050601f8311600181146112335760008415611221578287015190505b61122b85826111ad565b865550611293565b601f19841661124186611013565b60005b8281101561126957848901518255600182019150602085019450602081019050611244565b868310156112865784890151611282601f89168261118f565b8355505b6001600288020188555050505b505050505050565b600081905092915050565b7f6e6f6d6531000000000000000000000000000000000000000000000000000000600082015250565b60006112dc60058361129b565b91506112e7826112a6565b600582019050919050565b60006112fd826112cf565b9150819050919050565b7f6e6f6d6532000000000000000000000000000000000000000000000000000000600082015250565b600061133d60058361129b565b915061134882611307565b600582019050919050565b600061135e82611330565b9150819050919050565b7f6e6f6d6533000000000000000000000000000000000000000000000000000000600082015250565b600061139e60058361129b565b91506113a982611368565b600582019050919050565b60006113bf82611391565b9150819050919050565b7f6e6f6d6534000000000000000000000000000000000000000000000000000000600082015250565b60006113ff60058361129b565b915061140a826113c9565b600582019050919050565b6000611420826113f2565b9150819050919050565b7f6e6f6d6535000000000000000000000000000000000000000000000000000000600082015250565b600061146060058361129b565b915061146b8261142a565b600582019050919050565b600061148182611453565b9150819050919050565b7f6e6f6d6536000000000000000000000000000000000000000000000000000000600082015250565b60006114c160058361129b565b91506114cc8261148b565b600582019050919050565b60006114e2826114b4565b9150819050919050565b7f6e6f6d6537000000000000000000000000000000000000000000000000000000600082015250565b600061152260058361129b565b915061152d826114ec565b600582019050919050565b600061154382611515565b9150819050919050565b7f6e6f6d6538000000000000000000000000000000000000000000000000000000600082015250565b600061158360058361129b565b915061158e8261154d565b600582019050919050565b60006115a482611576565b9150819050919050565b7f6e6f6d6539000000000000000000000000000000000000000000000000000000600082015250565b60006115e460058361129b565b91506115ef826115ae565b600582019050919050565b6000611605826115d7565b9150819050919050565b7f6e6f6d6531300000000000000000000000000000000000000000000000000000600082015250565b600061164560068361129b565b91506116508261160f565b600682019050919050565b600061166682611638565b9150819050919050565b7f6e6f6d6531310000000000000000000000000000000000000000000000000000600082015250565b60006116a660068361129b565b91506116b182611670565b600682019050919050565b60006116c782611699565b9150819050919050565b7f6e6f6d6531320000000000000000000000000000000000000000000000000000600082015250565b600061170760068361129b565b9150611712826116d1565b600682019050919050565b6000611728826116fa565b9150819050919050565b7f6e6f6d6531330000000000000000000000000000000000000000000000000000600082015250565b600061176860068361129b565b915061177382611732565b600682019050919050565b60006117898261175b565b9150819050919050565b7f6e6f6d6531340000000000000000000000000000000000000000000000000000600082015250565b60006117c960068361129b565b91506117d482611793565b600682019050919050565b60006117ea826117bc565b9150819050919050565b7f6e6f6d6531350000000000000000000000000000000000000000000000000000600082015250565b600061182a60068361129b565b9150611835826117f4565b600682019050919050565b600061184b8261181d565b9150819050919050565b7f6e6f6d6531360000000000000000000000000000000000000000000000000000600082015250565b600061188b60068361129b565b915061189682611855565b600682019050919050565b60006118ac8261187e565b9150819050919050565b7f6e6f6d6531370000000000000000000000000000000000000000000000000000600082015250565b60006118ec60068361129b565b91506118f7826118b6565b600682019050919050565b600061190d826118df565b9150819050919050565b7f6e6f6d6531380000000000000000000000000000000000000000000000000000600082015250565b600061194d60068361129b565b915061195882611917565b600682019050919050565b600061196e82611940565b9150819050919050565b7f6e6f6d6531390000000000000000000000000000000000000000000000000000600082015250565b60006119ae60068361129b565b91506119b982611978565b600682019050919050565b60006119cf826119a1565b9150819050919050565b611e38806119e86000396000f3fe608060405234801561001057600080fd5b50600436106100f55760003560e01c8063640e116811610097578063a9059cbb11610066578063a9059cbb14610250578063c683e0f414610280578063d1e703d61461029c578063dd62ed3e146102cc576100f5565b8063640e1168146101c857806370a08231146101e657806395d89b4114610216578063a638580314610234576100f5565b806320949bb4116100d357806320949bb41461016657806323b872dd14610170578063313ce567146101a057806360a3ae06146101be576100f5565b806306fdde03146100fa578063095ea7b31461011857806318160ddd14610148575b600080fd5b6101026102fc565b60405161010f919061141f565b60405180910390f35b610132600480360381019061012d91906114e9565b61038e565b60405161013f9190611544565b60405180910390f35b6101506103b1565b60405161015d919061156e565b60405180910390f35b61016e6103bb565b005b61018a60048036038101906101859190611589565b6104c0565b6040516101979190611544565b60405180910390f35b6101a86104ef565b6040516101b591906115f8565b60405180910390f35b6101c66104f8565b005b6101d06105fd565b6040516101dd9190611544565b60405180910390f35b61020060048036038101906101fb9190611613565b610610565b60405161020d919061156e565b60405180910390f35b61021e610658565b60405161022b919061141f565b60405180910390f35b61024e60048036038101906102499190611775565b6106ea565b005b61026a600480360381019061026591906114e9565b610a9b565b6040516102779190611544565b60405180910390f35b61029a60048036038101906102959190611775565b610abe565b005b6102b660048036038101906102b191906117d1565b610c9f565b6040516102c39190611829565b60405180910390f35b6102e660048036038101906102e19190611844565b610ce7565b6040516102f3919061156e565b60405180910390f35b60606003805461030b906118b3565b80601f0160208091040260200160405190810160405280929190818152602001828054610337906118b3565b80156103845780601f1061035957610100808354040283529160200191610384565b820191906000526020600020905b81548152906001019060200180831161036757829003601f168201915b5050505050905090565b600080610399610d6e565b90506103a6818585610d76565b600191505092915050565b6000600254905090565b600560009054906101000a900473ffffffffffffffffffffffffffffffffffffffff1673ffffffffffffffffffffffffffffffffffffffff163373ffffffffffffffffffffffffffffffffffffffff1614806104645750600660009054906101000a900473ffffffffffffffffffffffffffffffffffffffff1673ffffffffffffffffffffffffffffffffffffffff163373ffffffffffffffffffffffffffffffffffffffff16145b6104a3576040517f08c379a000000000000000000000000000000000000000000000000000000000815260040161049a90611930565b60405180910390fd5b6001600660146101000a81548160ff021916908315150217905550565b6000806104cb610d6e565b90506104d8858285610d88565b6104e3858585610e1d565b60019150509392505050565b60006012905090565b600560009054906101000a900473ffffffffffffffffffffffffffffffffffffffff1673ffffffffffffffffffffffffffffffffffffffff163373ffffffffffffffffffffffffffffffffffffffff1614806105a15750600660009054906101000a900473ffffffffffffffffffffffffffffffffffffffff1673ffffffffffffffffffffffffffffffffffffffff163373ffffffffffffffffffffffffffffffffffffffff16145b6105e0576040517f08c379a00000000000000000000000000000000000000000000000000000000081526004016105d790611930565b60405180910390fd5b6000600660146101000a81548160ff021916908315150217905550565b600660149054906101000a900460ff1681565b60008060008373ffffffffffffffffffffffffffffffffffffffff1673ffffffffffffffffffffffffffffffffffffffff168152602001908152602001600020549050919050565b606060048054610667906118b3565b80601f0160208091040260200160405190810160405280929190818152602001828054610693906118b3565b80156106e05780601f106106b5576101008083540402835291602001916106e0565b820191906000526020600020905b8154815290600101906020018083116106c357829003601f168201915b5050505050905090565b600660149054906101000a900460ff16610739576040517f08c379a00000000000000000000000000000000000000000000000000000000081526004016107309061199c565b60405180910390fd5b6000805b60138110156107c457600a816013811061075a576107596119bc565b5b0160009054906101000a900473ffffffffffffffffffffffffffffffffffffffff1673ffffffffffffffffffffffffffffffffffffffff163373ffffffffffffffffffffffffffffffffffffffff16036107b757600191506107c4565b808060010191505061073d565b5080610805576040517f08c379a00000000000000000000000000000000000000000000000000000000081526004016107fc90611a37565b60405180910390fd5b60006009846040516108179190611a93565b908152602001604051809103902060009054906101000a900473ffffffffffffffffffffffffffffffffffffffff169050600073ffffffffffffffffffffffffffffffffffffffff168173ffffffffffffffffffffffffffffffffffffffff16036108b7576040517f08c379a00000000000000000000000000000000000000000000000000000000081526004016108ae90611af6565b60405180910390fd5b8073ffffffffffffffffffffffffffffffffffffffff163373ffffffffffffffffffffffffffffffffffffffff1603610925576040517f08c379a000000000000000000000000000000000000000000000000000000000815260040161091c90611b62565b60405180910390fd5b600860003373ffffffffffffffffffffffffffffffffffffffff1673ffffffffffffffffffffffffffffffffffffffff16815260200190815260200160002060009054906101000a900460ff16156109b2576040517f08c379a00000000000000000000000000000000000000000000000000000000081526004016109a990611bce565b60405180910390fd5b670de0b6b3a764000060026109c79190611c1d565b831115610a09576040517f08c379a0000000000000000000000000000000000000000000000000000000008152600401610a0090611cab565b60405180910390fd5b610a138184610f11565b610a3d33600a670de0b6b3a76400006002610a2e9190611c1d565b610a389190611cfa565b610f11565b6001600860003373ffffffffffffffffffffffffffffffffffffffff1673ffffffffffffffffffffffffffffffffffffffff16815260200190815260200160002060006101000a81548160ff02191690831515021790555050505050565b600080610aa6610d6e565b9050610ab3818585610e1d565b600191505092915050565b600560009054906101000a900473ffffffffffffffffffffffffffffffffffffffff1673ffffffffffffffffffffffffffffffffffffffff163373ffffffffffffffffffffffffffffffffffffffff161480610b675750600660009054906101000a900473ffffffffffffffffffffffffffffffffffffffff1673ffffffffffffffffffffffffffffffffffffffff163373ffffffffffffffffffffffffffffffffffffffff16145b610ba6576040517f08c379a0000000000000000000000000000000000000000000000000000000008152600401610b9d90611930565b60405180910390fd5b600073ffffffffffffffffffffffffffffffffffffffff16600783604051610bce9190611a93565b908152602001604051809103902060009054906101000a900473ffffffffffffffffffffffffffffffffffffffff1673ffffffffffffffffffffffffffffffffffffffff1603610c53576040517f08c379a0000000000000000000000000000000000000000000000000000000008152600401610c4a90611d77565b60405180910390fd5b610c9b600783604051610c669190611a93565b908152602001604051809103902060009054906101000a900473ffffffffffffffffffffffffffffffffffffffff1682610f11565b5050565b6000600982604051610cb19190611a93565b908152602001604051809103902060009054906101000a900473ffffffffffffffffffffffffffffffffffffffff169050919050565b6000600160008473ffffffffffffffffffffffffffffffffffffffff1673ffffffffffffffffffffffffffffffffffffffff16815260200190815260200160002060008373ffffffffffffffffffffffffffffffffffffffff1673ffffffffffffffffffffffffffffffffffffffff16815260200190815260200160002054905092915050565b600033905090565b610d838383836001610f93565b505050565b6000610d948484610ce7565b90507fffffffffffffffffffffffffffffffffffffffffffffffffffffffffffffffff811015610e175781811015610e07578281836040517ffb8f41b2000000000000000000000000000000000000000000000000000000008152600401610dfe93929190611d97565b60405180910390fd5b610e1684848484036000610f93565b5b50505050565b600073ffffffffffffffffffffffffffffffffffffffff168373ffffffffffffffffffffffffffffffffffffffff1603610e8f5760006040517f96c6fd1e000000000000000000000000000000000000000000000000000000008152600401610e869190611829565b60405180910390fd5b600073ffffffffffffffffffffffffffffffffffffffff168273ffffffffffffffffffffffffffffffffffffffff1603610f015760006040517fec442f05000000000000000000000000000000000000000000000000000000008152600401610ef89190611829565b60405180910390fd5b610f0c83838361116a565b505050565b600073ffffffffffffffffffffffffffffffffffffffff168273ffffffffffffffffffffffffffffffffffffffff1603610f835760006040517fec442f05000000000000000000000000000000000000000000000000000000008152600401610f7a9190611829565b60405180910390fd5b610f8f6000838361116a565b5050565b600073ffffffffffffffffffffffffffffffffffffffff168473ffffffffffffffffffffffffffffffffffffffff16036110055760006040517fe602df05000000000000000000000000000000000000000000000000000000008152600401610ffc9190611829565b60405180910390fd5b600073ffffffffffffffffffffffffffffffffffffffff168373ffffffffffffffffffffffffffffffffffffffff16036110775760006040517f94280d6200000000000000000000000000000000000000000000000000000000815260040161106e9190611829565b60405180910390fd5b81600160008673ffffffffffffffffffffffffffffffffffffffff1673ffffffffffffffffffffffffffffffffffffffff16815260200190815260200160002060008573ffffffffffffffffffffffffffffffffffffffff1673ffffffffffffffffffffffffffffffffffffffff168152602001908152602001600020819055508015611164578273ffffffffffffffffffffffffffffffffffffffff168473ffffffffffffffffffffffffffffffffffffffff167f8c5be1e5ebec7d5bd14f71427d1e84f3dd0314c0f7b2291e5b200ac8c7c3b9258460405161115b919061156e565b60405180910390a35b50505050565b600073ffffffffffffffffffffffffffffffffffffffff168373ffffffffffffffffffffffffffffffffffffffff16036111bc5780600260008282546111b09190611dce565b9250508190555061128f565b60008060008573ffffffffffffffffffffffffffffffffffffffff1673ffffffffffffffffffffffffffffffffffffffff16815260200190815260200160002054905081811015611248578381836040517fe450d38c00000000000000000000000000000000000000000000000000000000815260040161123f93929190611d97565b60405180910390fd5b8181036000808673ffffffffffffffffffffffffffffffffffffffff1673ffffffffffffffffffffffffffffffffffffffff16815260200190815260200160002081905550505b600073ffffffffffffffffffffffffffffffffffffffff168273ffffffffffffffffffffffffffffffffffffffff16036112d85780600260008282540392505081905550611325565b806000808473ffffffffffffffffffffffffffffffffffffffff1673ffffffffffffffffffffffffffffffffffffffff168152602001908152602001600020600082825401925050819055505b8173ffffffffffffffffffffffffffffffffffffffff168373ffffffffffffffffffffffffffffffffffffffff167fddf252ad1be2c89b69c2b068fc378daa952ba7f163c4a11628f55a4df523b3ef83604051611382919061156e565b60405180910390a3505050565b600081519050919050565b600082825260208201905092915050565b60005b838110156113c95780820151818401526020810190506113ae565b60008484015250505050565b6000601f19601f8301169050919050565b60006113f18261138f565b6113fb818561139a565b935061140b8185602086016113ab565b611414816113d5565b840191505092915050565b6000602082019050818103600083015261143981846113e6565b905092915050565b6000604051905090565b600080fd5b600080fd5b600073ffffffffffffffffffffffffffffffffffffffff82169050919050565b600061148082611455565b9050919050565b61149081611475565b811461149b57600080fd5b50565b6000813590506114ad81611487565b92915050565b6000819050919050565b6114c6816114b3565b81146114d157600080fd5b50565b6000813590506114e3816114bd565b92915050565b60008060408385031215611500576114ff61144b565b5b600061150e8582860161149e565b925050602061151f858286016114d4565b9150509250929050565b60008115159050919050565b61153e81611529565b82525050565b60006020820190506115596000830184611535565b92915050565b611568816114b3565b82525050565b6000602082019050611583600083018461155f565b92915050565b6000806000606084860312156115a2576115a161144b565b5b60006115b08682870161149e565b93505060206115c18682870161149e565b92505060406115d2868287016114d4565b9150509250925092565b600060ff82169050919050565b6115f2816115dc565b82525050565b600060208201905061160d60008301846115e9565b92915050565b6000602082840312156116295761162861144b565b5b60006116378482850161149e565b91505092915050565b600080fd5b600080fd5b7f4e487b7100000000000000000000000000000000000000000000000000000000600052604160045260246000fd5b611682826113d5565b810181811067ffffffffffffffff821117156116a1576116a061164a565b5b80604052505050565b60006116b4611441565b90506116c08282611679565b919050565b600067ffffffffffffffff8211156116e0576116df61164a565b5b6116e9826113d5565b9050602081019050919050565b82818337600083830152505050565b6000611718611713846116c5565b6116aa565b90508281526020810184848401111561173457611733611645565b5b61173f8482856116f6565b509392505050565b600082601f83011261175c5761175b611640565b5b813561176c848260208601611705565b91505092915050565b6000806040838503121561178c5761178b61144b565b5b600083013567ffffffffffffffff8111156117aa576117a9611450565b5b6117b685828601611747565b92505060206117c7858286016114d4565b9150509250929050565b6000602082840312156117e7576117e661144b565b5b600082013567ffffffffffffffff81111561180557611804611450565b5b61181184828501611747565b91505092915050565b61182381611475565b82525050565b600060208201905061183e600083018461181a565b92915050565b6000806040838503121561185b5761185a61144b565b5b60006118698582860161149e565b925050602061187a8582860161149e565b9150509250929050565b7f4e487b7100000000000000000000000000000000000000000000000000000000600052602260045260246000fd5b600060028204905060018216806118cb57607f821691505b6020821081036118de576118dd611884565b5b50919050565b7f556e617574686f72697a65642100000000000000000000000000000000000000600082015250565b600061191a600d8361139a565b9150611925826118e4565b602082019050919050565b600060208201905081810360008301526119498161190d565b9050919050565b7f566f74696e672069732063757272656e746c792064697361626c656421000000600082015250565b6000611986601d8361139a565b915061199182611950565b602082019050919050565b600060208201905081810360008301526119b581611979565b9050919050565b7f4e487b7100000000000000000000000000000000000000000000000000000000600052603260045260246000fd5b7f596f7520617265206e6f7420616e20617574686f72697a656420766f74657221600082015250565b6000611a2160208361139a565b9150611a2c826119eb565b602082019050919050565b60006020820190508181036000830152611a5081611a14565b9050919050565b600081905092915050565b6000611a6d8261138f565b611a778185611a57565b9350611a878185602086016113ab565b80840191505092915050565b6000611a9f8284611a62565b915081905092915050565b7f496e76616c696420766f746572206e616d652100000000000000000000000000600082015250565b6000611ae060138361139a565b9150611aeb82611aaa565b602082019050919050565b60006020820190508181036000830152611b0f81611ad3565b9050919050565b7f596f752063616e6e6f7420766f746520666f7220796f757273656c6621000000600082015250565b6000611b4c601d8361139a565b9150611b5782611b16565b602082019050919050565b60006020820190508181036000830152611b7b81611b3f565b9050919050565b7f596f75206861766520616c726561647920766f74656421000000000000000000600082015250565b6000611bb860178361139a565b9150611bc382611b82565b602082019050919050565b60006020820190508181036000830152611be781611bab565b9050919050565b7f4e487b7100000000000000000000000000000000000000000000000000000000600052601160045260246000fd5b6000611c28826114b3565b9150611c33836114b3565b9250828202611c41816114b3565b91508282048414831517611c5857611c57611bee565b5b5092915050565b7f566f746520616d6f756e742065786365656473206c696d697421000000000000600082015250565b6000611c95601a8361139a565b9150611ca082611c5f565b602082019050919050565b60006020820190508181036000830152611cc481611c88565b9050919050565b7f4e487b7100000000000000000000000000000000000000000000000000000000600052601260045260246000fd5b6000611d05826114b3565b9150611d10836114b3565b925082611d2057611d1f611ccb565b5b828204905092915050565b7f496e76616c696420636f64696e6f6d6521000000000000000000000000000000600082015250565b6000611d6160118361139a565b9150611d6c82611d2b565b602082019050919050565b60006020820190508181036000830152611d9081611d54565b9050919050565b6000606082019050611dac600083018661181a565b611db9602083018561155f565b611dc6604083018461155f565b949350505050565b6000611dd9826114b3565b9150611de4836114b3565b9250828201905080821115611dfc57611dfb611bee565b5b9291505056fea2646970667358221220bb846009a42c3f90bf15691af23587f00fbd636249db65a1f48b189bb982f45364736f6c634300081c0033",
  "linkReferences": {},
  "deployedLinkReferences": {}
}