{
  "_format": "hh-sol-artifact-1",
  "contractName": "TuringVoting",
  "sourceName": "contracts/TuringVoting.sol",
  "abi": [
    {
      "inputs": [],
      "stateMutability": "nonpayable",
      "type": "constructor"
    },
    {
      "inputs": [
        {
          "internalType": "address",
          "name": "spender",
          "type": "address"
        },
        {
          "internalType": "uint256",
          "name": "allowance",
          "type": "uint256"
        },
        {
          "internalType": "uint256",
          "name": "needed",
          "type": "uint256"
        }
      ],
      "name": "ERC20InsufficientAllowance",
      "type": "error"
    },
    {
      "inputs": [
        {
          "internalType": "address",
          "name": "sender",
          "type": "address"
        },
        {
          "internalType": "uint256",
          "name": "balance",
          "type": "uint256"
        },
        {
          "internalType": "uint256",
          "name": "needed",
          "type": "uint256"
        }
      ],
      "name": "ERC20InsufficientBalance",
      "type": "error"
    },
    {
      "inputs": [
        {
          "internalType": "address",
          "name": "approver",
          "type": "address"
        }
      ],
      "name": "ERC20InvalidApprover",
      "type": "error"
    },
    {
      "inputs": [
        {
          "internalType": "address",
          "name": "receiver",
          "type": "address"
        }
      ],
      "name": "ERC20InvalidReceiver",
      "type": "error"
    },
    {
      "inputs": [
        {
          "internalType": "address",
          "name": "sender",
          "type": "address"
        }
      ],
      "name": "ERC20InvalidSender",
      "type": "error"
    },
    {
      "inputs": [
        {
          "internalType": "address",
          "name": "spender",
          "type": "address"
        }
      ],
      "name": "ERC20InvalidSpender",
      "type": "error"
    },
    {
      "anonymous": false,
      "inputs": [
        {
          "indexed": true,
          "internalType": "address",
          "name": "owner",
          "type": "address"
        },
        {
          "indexed": true,
          "internalType": "address",
          "name": "spender",
          "type": "address"
        },
        {
          "indexed": false,
          "internalType": "uint256",
          "name": "value",
          "type": "uint256"
        }
      ],
      "name": "Approval",
      "type": "event"
    },
    {
      "anonymous": false,
      "inputs": [
        {
          "indexed": true,
          "internalType": "address",
          "name": "from",
          "type": "address"
        },
        {
          "indexed": true,
          "internalType": "address",
          "name": "to",
          "type": "address"
        },
        {
          "indexed": false,
          "internalType": "uint256",
          "name": "value",
          "type": "uint256"
        }
      ],
      "name": "Transfer",
      "type": "event"
    },
    {
      "inputs": [
        {
          "internalType": "address",
          "name": "owner",
          "type": "address"
        },
        {
          "internalType": "address",
          "name": "spender",
          "type": "address"
        }
      ],
      "name": "allowance",
      "outputs": [
        {
          "internalType": "uint256",
          "name": "",
          "type": "uint256"
        }
      ],
      "stateMutability": "view",
      "type": "function"
    },
    {
      "inputs": [
        {
          "internalType": "address",
          "name": "spender",
          "type": "address"
        },
        {
          "internalType": "uint256",
          "name": "value",
          "type": "uint256"
        }
      ],
      "name": "approve",
      "outputs": [
        {
          "internalType": "bool",
          "name": "",
          "type": "bool"
        }
      ],
      "stateMutability": "nonpayable",
      "type": "function"
    },
    {
      "inputs": [
        {
          "internalType": "address",
          "name": "account",
          "type": "address"
        }
      ],
      "name": "balanceOf",
      "outputs": [
        {
          "internalType": "uint256",
          "name": "",
          "type": "uint256"
        }
      ],
      "stateMutability": "view",
      "type": "function"
    },
    {
      "inputs": [],
      "name": "decimals",
      "outputs": [
        {
          "internalType": "uint8",
          "name": "",
          "type": "uint8"
        }
      ],
      "stateMutability": "view",
      "type": "function"
    },
    {
      "inputs": [
        {
          "internalType": "string",
          "name": "voterName",
          "type": "string"
        }
      ],
      "name": "getVoterAddress",
      "outputs": [
        {
          "internalType": "address",
          "name": "",
          "type": "address"
        }
      ],
      "stateMutability": "view",
      "type": "function"
    },
    {
      "inputs": [
        {
          "internalType": "string",
          "name": "codinome",
          "type": "string"
        },
        {
          "internalType": "uint256",
          "name": "amount",
          "type": "uint256"
        }
      ],
      "name": "issueToken",
      "outputs": [],
      "stateMutability": "nonpayable",
      "type": "function"
    },
    {
      "inputs": [],
      "name": "name",
      "outputs": [
        {
          "internalType": "string",
          "name": "",
          "type": "string"
        }
      ],
      "stateMutability": "view",
      "type": "function"
    },
    {
      "inputs": [],
      "name": "symbol",
      "outputs": [
        {
          "internalType": "string",
          "name": "",
          "type": "string"
        }
      ],
      "stateMutability": "view",
      "type": "function"
    },
    {
      "inputs": [],
      "name": "totalSupply",
      "outputs": [
        {
          "internalType": "uint256",
          "name": "",
          "type": "uint256"
        }
      ],
      "stateMutability": "view",
      "type": "function"
    },
    {
      "inputs": [
        {
          "internalType": "address",
          "name": "to",
          "type": "address"
        },
        {
          "internalType": "uint256",
          "name": "value",
          "type": "uint256"
        }
      ],
      "name": "transfer",
      "outputs": [
        {
          "internalType": "bool",
          "name": "",
          "type": "bool"
        }
      ],
      "stateMutability": "nonpayable",
      "type": "function"
    },
    {
      "inputs": [
        {
          "internalType": "address",
          "name": "from",
          "type": "address"
        },
        {
          "internalType": "address",
          "name": "to",
          "type": "address"
        },
        {
          "internalType": "uint256",
          "name": "value",
          "type": "uint256"
        }
      ],
      "name": "transferFrom",
      "outputs": [
        {
          "internalType": "bool",
          "name": "",
          "type": "bool"
        }
      ],
      "stateMutability": "nonpayable",
      "type": "function"
    },
    {
      "inputs": [
        {
          "internalType": "string",
          "name": "voterName",
          "type": "string"
        },
        {
          "internalType": "uint256",
          "name": "amount",
          "type": "uint256"
        }
      ],
      "name": "vote",
      "outputs": [],
      "stateMutability": "nonpayable",
      "type": "function"
    },
    {
      "inputs": [],
      "name": "votingEnabled",
      "outputs": [
        {
          "internalType": "bool",
          "name": "",
          "type": "bool"
        }
      ],
      "stateMutability": "view",
      "type": "function"
    },
    {
      "inputs": [],
      "name": "votingOff",
      "outputs": [],
      "stateMutability": "nonpayable",
      "type": "function"
    },
    {
      "inputs": [],
      "name": "votingOn",
      "outputs": [],
      "stateMutability": "nonpayable",
      "type": "function"
    }
  ],
  "bytecode": "0x608060405273502542668af09fa7aea52174b9965a7799343df7600660006101000a81548173ffffffffffffffffffffffffffffffffffffffff021916908373ffffffffffffffffffffffffffffffffffffffff1602179055506001600660146101000a81548160ff02191690831515021790555034801561008057600080fd5b506040518060400160405280600c81526020017f547572696e67566f74696e6700000000000000000000000000000000000000008152506040518060400160405280600281526020017f545600000000000000000000000000000000000000000000000000000000000081525081600390816100fc919061127e565b50806004908161010c919061127e565b50505033600560006101000a81548173ffffffffffffffffffffffffffffffffffffffff021916908373ffffffffffffffffffffffffffffffffffffffff16021790555060405180610280016040528073f39fd6e51aad88f6f4ce6ab8827279cfffb9226673ffffffffffffffffffffffffffffffffffffffff1673ffffffffffffffffffffffffffffffffffffffff1681526020017370997970c51812dc3a010c7d01b50e0d17dc79c873ffffffffffffffffffffffffffffffffffffffff1673ffffffffffffffffffffffffffffffffffffffff168152602001733c44cdddb6a900fa2b585dd299e03d12fa4293bc73ffffffffffffffffffffffffffffffffffffffff1673ffffffffffffffffffffffffffffffffffffffff1681526020017390f79bf6eb2c4f870365e785982e1f101e93b90673ffffffffffffffffffffffffffffffffffffffff1673ffffffffffffffffffffffffffffffffffffffff1681526020017315d34aaf54267db7d7c367839aaf71a00a2c6a6573ffffffffffffffffffffffffffffffffffffffff1673ffffffffffffffffffffffffffffffffffffffff168152602001739965507d1a55bcc2695c58ba16fb37d819b0a4dc73ffffffffffffffffffffffffffffffffffffffff1673ffffffffffffffffffffffffffffffffffffffff16815260200173976ea74026e726554db657fa54763abd0c3a0aa973ffffffffffffffffffffffffffffffffffffffff1673ffffffffffffffffffffffffffffffffffffffff1681526020017314dc79964da2c08b23698b3d3cc7ca32193d995573ffffffffffffffffffffffffffffffffffffffff1673ffffffffffffffffffffffffffffffffffffffff1681526020017323618e81e3f5cdf7f54c3d65f7fbc0abf5b21e8f73ffffffffffffffffffffffffffffffffffffffff1673ffffffffffffffffffffffffffffffffffffffff16815260200173a0ee7a142d267c1f36714e4a8f75612f20a7972073ffffffffffffffffffffffffffffffffffffffff1673ffffffffffffffffffffffffffffffffffffffff16815260200173bcd4042de499d14e55001ccbb24a551f3b95409673ffffffffffffffffffffffffffffffffffffffff1673ffffffffffffffffffffffffffffffffffffffff1681526020017371be63f3384f5fb98995898a86b02fb2426c578873ffffffffffffffffffffffffffffffffffffffff1673ffffffffffffffffffffffffffffffffffffffff16815260200173fabb0ac9d68b0b445fb7357272ff202c5651694a73ffffffffffffffffffffffffffffffffffffffff1673ffffffffffffffffffffffffffffffffffffffff168152602001731cbd3b2770909d4e10f157cabc84c7264073c9ec73ffffffffffffffffffffffffffffffffffffffff1673ffffffffffffffffffffffffffffffffffffffff16815260200173df3e18d64bc6a983f673ab319ccae4f1a57c709773ffffffffffffffffffffffffffffffffffffffff1673ffffffffffffffffffffffffffffffffffffffff16815260200173cd3b766ccdd6ae721141f452c550ca635964ce7173ffffffffffffffffffffffffffffffffffffffff1673ffffffffffffffffffffffffffffffffffffffff168152602001732546bcd3c84621e976d8185a91a922ae77ecec3073ffffffffffffffffffffffffffffffffffffffff1673ffffffffffffffffffffffffffffffffffffffff16815260200173bda5747bfd65f08deb54cb465eb87d40e51b197e73ffffffffffffffffffffffffffffffffffffffff1673ffffffffffffffffffffffffffffffffffffffff16815260200173dd2fd4581271e230360230f9337d5c0430bf44c073ffffffffffffffffffffffffffffffffffffffff1673ffffffffffffffffffffffffffffffffffffffff168152602001738626f6940e2eb28930efb4cef49b2d1f2c9c119973ffffffffffffffffffffffffffffffffffffffff1673ffffffffffffffffffffffffffffffffffffffff1681525060089060146106e2929190610f94565b5073f39fd6e51aad88f6f4ce6ab8827279cfffb922666007604051610706906113a7565b908152602001604051809103902060006101000a81548173ffffffffffffffffffffffffffffffffffffffff021916908373ffffffffffffffffffffffffffffffffffffffff1602179055507370997970c51812dc3a010c7d01b50e0d17dc79c8600760405161077590611408565b908152602001604051809103902060006101000a81548173ffffffffffffffffffffffffffffffffffffffff021916908373ffffffffffffffffffffffffffffffffffffffff160217905550733c44cdddb6a900fa2b585dd299e03d12fa4293bc60076040516107e490611469565b908152602001604051809103902060006101000a81548173ffffffffffffffffffffffffffffffffffffffff021916908373ffffffffffffffffffffffffffffffffffffffff1602179055507390f79bf6eb2c4f870365e785982e1f101e93b9066007604051610853906114ca565b908152602001604051809103902060006101000a81548173ffffffffffffffffffffffffffffffffffffffff021916908373ffffffffffffffffffffffffffffffffffffffff1602179055507315d34aaf54267db7d7c367839aaf71a00a2c6a6560076040516108c29061152b565b908152602001604051809103902060006101000a81548173ffffffffffffffffffffffffffffffffffffffff021916908373ffffffffffffffffffffffffffffffffffffffff160217905550739965507d1a55bcc2695c58ba16fb37d819b0a4dc60076040516109319061158c565b908152602001604051809103902060006101000a81548173ffffffffffffffffffffffffffffffffffffffff021916908373ffffffffffffffffffffffffffffffffffffffff16021790555073976ea74026e726554db657fa54763abd0c3a0aa960076040516109a0906115ed565b908152602001604051809103902060006101000a81548173ffffffffffffffffffffffffffffffffffffffff021916908373ffffffffffffffffffffffffffffffffffffffff1602179055507314dc79964da2c08b23698b3d3cc7ca32193d99556007604051610a0f9061164e565b908152602001604051809103902060006101000a81548173ffffffffffffffffffffffffffffffffffffffff021916908373ffffffffffffffffffffffffffffffffffffffff1602179055507323618e81e3f5cdf7f54c3d65f7fbc0abf5b21e8f6007604051610a7e906116af565b908152602001604051809103902060006101000a81548173ffffffffffffffffffffffffffffffffffffffff021916908373ffffffffffffffffffffffffffffffffffffffff16021790555073a0ee7a142d267c1f36714e4a8f75612f20a797206007604051610aed90611710565b908152602001604051809103902060006101000a81548173ffffffffffffffffffffffffffffffffffffffff021916908373ffffffffffffffffffffffffffffffffffffffff16021790555073bcd4042de499d14e55001ccbb24a551f3b9540966007604051610b5c90611771565b908152602001604051809103902060006101000a81548173ffffffffffffffffffffffffffffffffffffffff021916908373ffffffffffffffffffffffffffffffffffffffff1602179055507371be63f3384f5fb98995898a86b02fb2426c57886007604051610bcb906117d2565b908152602001604051809103902060006101000a81548173ffffffffffffffffffffffffffffffffffffffff021916908373ffffffffffffffffffffffffffffffffffffffff16021790555073fabb0ac9d68b0b445fb7357272ff202c5651694a6007604051610c3a90611833565b908152602001604051809103902060006101000a81548173ffffffffffffffffffffffffffffffffffffffff021916908373ffffffffffffffffffffffffffffffffffffffff160217905550731cbd3b2770909d4e10f157cabc84c7264073c9ec6007604051610ca990611894565b908152602001604051809103902060006101000a81548173ffffffffffffffffffffffffffffffffffffffff021916908373ffffffffffffffffffffffffffffffffffffffff16021790555073df3e18d64bc6a983f673ab319ccae4f1a57c70976007604051610d18906118f5565b908152602001604051809103902060006101000a81548173ffffffffffffffffffffffffffffffffffffffff021916908373ffffffffffffffffffffffffffffffffffffffff16021790555073cd3b766ccdd6ae721141f452c550ca635964ce716007604051610d8790611956565b908152602001604051809103902060006101000a81548173ffffffffffffffffffffffffffffffffffffffff021916908373ffffffffffffffffffffffffffffffffffffffff160217905550732546bcd3c84621e976d8185a91a922ae77ecec306007604051610df6906119b7565b908152602001604051809103902060006101000a81548173ffffffffffffffffffffffffffffffffffffffff021916908373ffffffffffffffffffffffffffffffffffffffff16021790555073bda5747bfd65f08deb54cb465eb87d40e51b197e6007604051610e6590611a18565b908152602001604051809103902060006101000a81548173ffffffffffffffffffffffffffffffffffffffff021916908373ffffffffffffffffffffffffffffffffffffffff16021790555073dd2fd4581271e230360230f9337d5c0430bf44c06007604051610ed490611a79565b908152602001604051809103902060006101000a81548173ffffffffffffffffffffffffffffffffffffffff021916908373ffffffffffffffffffffffffffffffffffffffff160217905550738626f6940e2eb28930efb4cef49b2d1f2c9c11996007604051610f4390611ada565b908152602001604051809103902060006101000a81548173ffffffffffffffffffffffffffffffffffffffff021916908373ffffffffffffffffffffffffffffffffffffffff160217905550611aef565b8260148101928215611000579160200282015b82811115610fff5782518260006101000a81548173ffffffffffffffffffffffffffffffffffffffff021916908373ffffffffffffffffffffffffffffffffffffffff16021790555091602001919060010190610fa7565b5b50905061100d9190611011565b5090565b5b8082111561102a576000816000905550600101611012565b5090565b600081519050919050565b7f4e487b7100000000000000000000000000000000000000000000000000000000600052604160045260246000fd5b7f4e487b7100000000000000000000000000000000000000000000000000000000600052602260045260246000fd5b600060028204905060018216806110af57607f821691505b6020821081036110c2576110c1611068565b5b50919050565b60008190508160005260206000209050919050565b60006020601f8301049050919050565b600082821b905092915050565b60006008830261112a7fffffffffffffffffffffffffffffffffffffffffffffffffffffffffffffffff826110ed565b61113486836110ed565b95508019841693508086168417925050509392505050565b6000819050919050565b6000819050919050565b600061117b6111766111718461114c565b611156565b61114c565b9050919050565b6000819050919050565b61119583611160565b6111a96111a182611182565b8484546110fa565b825550505050565b600090565b6111be6111b1565b6111c981848461118c565b505050565b5b818110156111ed576111e26000826111b6565b6001810190506111cf565b5050565b601f82111561123257611203816110c8565b61120c846110dd565b8101602085101561121b578190505b61122f611227856110dd565b8301826111ce565b50505b505050565b600082821c905092915050565b600061125560001984600802611237565b1980831691505092915050565b600061126e8383611244565b9150826002028217905092915050565b6112878261102e565b67ffffffffffffffff8111156112a05761129f611039565b5b6112aa8254611097565b6112b58282856111f1565b600060209050601f8311600181146112e857600084156112d6578287015190505b6112e08582611262565b865550611348565b601f1984166112f6866110c8565b60005b8281101561131e578489015182556001820191506020850194506020810190506112f9565b8683101561133b5784890151611337601f891682611244565b8355505b6001600288020188555050505b505050505050565b600081905092915050565b7f6e6f6d6530000000000000000000000000000000000000000000000000000000600082015250565b6000611391600583611350565b915061139c8261135b565b600582019050919050565b60006113b282611384565b9150819050919050565b7f6e6f6d6531000000000000000000000000000000000000000000000000000000600082015250565b60006113f2600583611350565b91506113fd826113bc565b600582019050919050565b6000611413826113e5565b9150819050919050565b7f6e6f6d6532000000000000000000000000000000000000000000000000000000600082015250565b6000611453600583611350565b915061145e8261141d565b600582019050919050565b600061147482611446565b9150819050919050565b7f6e6f6d6533000000000000000000000000000000000000000000000000000000600082015250565b60006114b4600583611350565b91506114bf8261147e565b600582019050919050565b60006114d5826114a7565b9150819050919050565b7f6e6f6d6534000000000000000000000000000000000000000000000000000000600082015250565b6000611515600583611350565b9150611520826114df565b600582019050919050565b600061153682611508565b9150819050919050565b7f6e6f6d6535000000000000000000000000000000000000000000000000000000600082015250565b6000611576600583611350565b915061158182611540565b600582019050919050565b600061159782611569565b9150819050919050565b7f6e6f6d6536000000000000000000000000000000000000000000000000000000600082015250565b60006115d7600583611350565b91506115e2826115a1565b600582019050919050565b60006115f8826115ca565b9150819050919050565b7f6e6f6d6537000000000000000000000000000000000000000000000000000000600082015250565b6000611638600583611350565b915061164382611602565b600582019050919050565b60006116598261162b565b9150819050919050565b7f6e6f6d6538000000000000000000000000000000000000000000000000000000600082015250565b6000611699600583611350565b91506116a482611663565b600582019050919050565b60006116ba8261168c565b9150819050919050565b7f6e6f6d6539000000000000000000000000000000000000000000000000000000600082015250565b60006116fa600583611350565b9150611705826116c4565b600582019050919050565b600061171b826116ed565b9150819050919050565b7f6e6f6d6531300000000000000000000000000000000000000000000000000000600082015250565b600061175b600683611350565b915061176682611725565b600682019050919050565b600061177c8261174e565b9150819050919050565b7f6e6f6d6531310000000000000000000000000000000000000000000000000000600082015250565b60006117bc600683611350565b91506117c782611786565b600682019050919050565b60006117dd826117af565b9150819050919050565b7f6e6f6d6531320000000000000000000000000000000000000000000000000000600082015250565b600061181d600683611350565b9150611828826117e7565b600682019050919050565b600061183e82611810565b9150819050919050565b7f6e6f6d6531330000000000000000000000000000000000000000000000000000600082015250565b600061187e600683611350565b915061188982611848565b600682019050919050565b600061189f82611871565b9150819050919050565b7f6e6f6d6531340000000000000000000000000000000000000000000000000000600082015250565b60006118df600683611350565b91506118ea826118a9565b600682019050919050565b6000611900826118d2565b9150819050919050565b7f6e6f6d6531350000000000000000000000000000000000000000000000000000600082015250565b6000611940600683611350565b915061194b8261190a565b600682019050919050565b600061196182611933565b9150819050919050565b7f6e6f6d6531360000000000000000000000000000000000000000000000000000600082015250565b60006119a1600683611350565b91506119ac8261196b565b600682019050919050565b60006119c282611994565b9150819050919050565b7f6e6f6d6531370000000000000000000000000000000000000000000000000000600082015250565b6000611a02600683611350565b9150611a0d826119cc565b600682019050919050565b6000611a23826119f5565b9150819050919050565b7f6e6f6d6531380000000000000000000000000000000000000000000000000000600082015250565b6000611a63600683611350565b9150611a6e82611a2d565b600682019050919050565b6000611a8482611a56565b9150819050919050565b7f6e6f6d6531390000000000000000000000000000000000000000000000000000600082015250565b6000611ac4600683611350565b9150611acf82611a8e565b600682019050919050565b6000611ae582611ab7565b9150819050919050565b611ce780611afe6000396000f3fe608060405234801561001057600080fd5b50600436106100f55760003560e01c8063640e116811610097578063a9059cbb11610066578063a9059cbb14610250578063c683e0f414610280578063d1e703d61461029c578063dd62ed3e146102cc576100f5565b8063640e1168146101c857806370a08231146101e657806395d89b4114610216578063a638580314610234576100f5565b806320949bb4116100d357806320949bb41461016657806323b872dd14610170578063313ce567146101a057806360a3ae06146101be576100f5565b806306fdde03146100fa578063095ea7b31461011857806318160ddd14610148575b600080fd5b6101026102fc565b60405161010f919061133a565b60405180910390f35b610132600480360381019061012d9190611404565b61038e565b60405161013f919061145f565b60405180910390f35b6101506103b1565b60405161015d9190611489565b60405180910390f35b61016e6103bb565b005b61018a600480360381019061018591906114a4565b6104c0565b604051610197919061145f565b60405180910390f35b6101a86104ef565b6040516101b59190611513565b60405180910390f35b6101c66104f8565b005b6101d06105fd565b6040516101dd919061145f565b60405180910390f35b61020060048036038101906101fb919061152e565b610610565b60405161020d9190611489565b60405180910390f35b61021e610658565b60405161022b919061133a565b60405180910390f35b61024e60048036038101906102499190611690565b6106ea565b005b61026a60048036038101906102659190611404565b6109b6565b604051610277919061145f565b60405180910390f35b61029a60048036038101906102959190611690565b6109d9565b005b6102b660048036038101906102b191906116ec565b610bba565b6040516102c39190611744565b60405180910390f35b6102e660048036038101906102e1919061175f565b610c02565b6040516102f39190611489565b60405180910390f35b60606003805461030b906117ce565b80601f0160208091040260200160405190810160405280929190818152602001828054610337906117ce565b80156103845780601f1061035957610100808354040283529160200191610384565b820191906000526020600020905b81548152906001019060200180831161036757829003601f168201915b5050505050905090565b600080610399610c89565b90506103a6818585610c91565b600191505092915050565b6000600254905090565b600560009054906101000a900473ffffffffffffffffffffffffffffffffffffffff1673ffffffffffffffffffffffffffffffffffffffff163373ffffffffffffffffffffffffffffffffffffffff1614806104645750600660009054906101000a900473ffffffffffffffffffffffffffffffffffffffff1673ffffffffffffffffffffffffffffffffffffffff163373ffffffffffffffffffffffffffffffffffffffff16145b6104a3576040517f08c379a000000000000000000000000000000000000000000000000000000000815260040161049a9061184b565b60405180910390fd5b6001600660146101000a81548160ff021916908315150217905550565b6000806104cb610c89565b90506104d8858285610ca3565b6104e3858585610d38565b60019150509392505050565b60006012905090565b600560009054906101000a900473ffffffffffffffffffffffffffffffffffffffff1673ffffffffffffffffffffffffffffffffffffffff163373ffffffffffffffffffffffffffffffffffffffff1614806105a15750600660009054906101000a900473ffffffffffffffffffffffffffffffffffffffff1673ffffffffffffffffffffffffffffffffffffffff163373ffffffffffffffffffffffffffffffffffffffff16145b6105e0576040517f08c379a00000000000000000000000000000000000000000000000000000000081526004016105d79061184b565b60405180910390fd5b6000600660146101000a81548160ff021916908315150217905550565b600660149054906101000a900460ff1681565b60008060008373ffffffffffffffffffffffffffffffffffffffff1673ffffffffffffffffffffffffffffffffffffffff168152602001908152602001600020549050919050565b606060048054610667906117ce565b80601f0160208091040260200160405190810160405280929190818152602001828054610693906117ce565b80156106e05780601f106106b5576101008083540402835291602001916106e0565b820191906000526020600020905b8154815290600101906020018083116106c357829003601f168201915b5050505050905090565b600660149054906101000a900460ff16610739576040517f08c379a0000000000000000000000000000000000000000000000000000000008152600401610730906118b7565b60405180910390fd5b6000805b60148110156107c4576008816014811061075a576107596118d7565b5b0160009054906101000a900473ffffffffffffffffffffffffffffffffffffffff1673ffffffffffffffffffffffffffffffffffffffff163373ffffffffffffffffffffffffffffffffffffffff16036107b757600191506107c4565b808060010191505061073d565b5080610805576040517f08c379a00000000000000000000000000000000000000000000000000000000081526004016107fc90611952565b60405180910390fd5b600060078460405161081791906119ae565b908152602001604051809103902060009054906101000a900473ffffffffffffffffffffffffffffffffffffffff169050600073ffffffffffffffffffffffffffffffffffffffff168173ffffffffffffffffffffffffffffffffffffffff16036108b7576040517f08c379a00000000000000000000000000000000000000000000000000000000081526004016108ae90611a11565b60405180910390fd5b8073ffffffffffffffffffffffffffffffffffffffff163373ffffffffffffffffffffffffffffffffffffffff1603610925576040517f08c379a000000000000000000000000000000000000000000000000000000000815260040161091c90611a7d565b60405180910390fd5b670de0b6b3a7640000600261093a9190611acc565b83111561097c576040517f08c379a000000000000000000000000000000000000000000000000000000000815260040161097390611b5a565b60405180910390fd5b6109868184610e2c565b6109b033600a670de0b6b3a764000060026109a19190611acc565b6109ab9190611ba9565b610e2c565b50505050565b6000806109c1610c89565b90506109ce818585610d38565b600191505092915050565b600560009054906101000a900473ffffffffffffffffffffffffffffffffffffffff1673ffffffffffffffffffffffffffffffffffffffff163373ffffffffffffffffffffffffffffffffffffffff161480610a825750600660009054906101000a900473ffffffffffffffffffffffffffffffffffffffff1673ffffffffffffffffffffffffffffffffffffffff163373ffffffffffffffffffffffffffffffffffffffff16145b610ac1576040517f08c379a0000000000000000000000000000000000000000000000000000000008152600401610ab89061184b565b60405180910390fd5b600073ffffffffffffffffffffffffffffffffffffffff16600783604051610ae991906119ae565b908152602001604051809103902060009054906101000a900473ffffffffffffffffffffffffffffffffffffffff1673ffffffffffffffffffffffffffffffffffffffff1603610b6e576040517f08c379a0000000000000000000000000000000000000000000000000000000008152600401610b6590611c26565b60405180910390fd5b610bb6600783604051610b8191906119ae565b908152602001604051809103902060009054906101000a900473ffffffffffffffffffffffffffffffffffffffff1682610e2c565b5050565b6000600782604051610bcc91906119ae565b908152602001604051809103902060009054906101000a900473ffffffffffffffffffffffffffffffffffffffff169050919050565b6000600160008473ffffffffffffffffffffffffffffffffffffffff1673ffffffffffffffffffffffffffffffffffffffff16815260200190815260200160002060008373ffffffffffffffffffffffffffffffffffffffff1673ffffffffffffffffffffffffffffffffffffffff16815260200190815260200160002054905092915050565b600033905090565b610c9e8383836001610eae565b505050565b6000610caf8484610c02565b90507fffffffffffffffffffffffffffffffffffffffffffffffffffffffffffffffff811015610d325781811015610d22578281836040517ffb8f41b2000000000000000000000000000000000000000000000000000000008152600401610d1993929190611c46565b60405180910390fd5b610d3184848484036000610eae565b5b50505050565b600073ffffffffffffffffffffffffffffffffffffffff168373ffffffffffffffffffffffffffffffffffffffff1603610daa5760006040517f96c6fd1e000000000000000000000000000000000000000000000000000000008152600401610da19190611744565b60405180910390fd5b600073ffffffffffffffffffffffffffffffffffffffff168273ffffffffffffffffffffffffffffffffffffffff1603610e1c5760006040517fec442f05000000000000000000000000000000000000000000000000000000008152600401610e139190611744565b60405180910390fd5b610e27838383611085565b505050565b600073ffffffffffffffffffffffffffffffffffffffff168273ffffffffffffffffffffffffffffffffffffffff1603610e9e5760006040517fec442f05000000000000000000000000000000000000000000000000000000008152600401610e959190611744565b60405180910390fd5b610eaa60008383611085565b5050565b600073ffffffffffffffffffffffffffffffffffffffff168473ffffffffffffffffffffffffffffffffffffffff1603610f205760006040517fe602df05000000000000000000000000000000000000000000000000000000008152600401610f179190611744565b60405180910390fd5b600073ffffffffffffffffffffffffffffffffffffffff168373ffffffffffffffffffffffffffffffffffffffff1603610f925760006040517f94280d62000000000000000000000000000000000000000000000000000000008152600401610f899190611744565b60405180910390fd5b81600160008673ffffffffffffffffffffffffffffffffffffffff1673ffffffffffffffffffffffffffffffffffffffff16815260200190815260200160002060008573ffffffffffffffffffffffffffffffffffffffff1673ffffffffffffffffffffffffffffffffffffffff16815260200190815260200160002081905550801561107f578273ffffffffffffffffffffffffffffffffffffffff168473ffffffffffffffffffffffffffffffffffffffff167f8c5be1e5ebec7d5bd14f71427d1e84f3dd0314c0f7b2291e5b200ac8c7c3b925846040516110769190611489565b60405180910390a35b50505050565b600073ffffffffffffffffffffffffffffffffffffffff168373ffffffffffffffffffffffffffffffffffffffff16036110d75780600260008282546110cb9190611c7d565b925050819055506111aa565b60008060008573ffffffffffffffffffffffffffffffffffffffff1673ffffffffffffffffffffffffffffffffffffffff16815260200190815260200160002054905081811015611163578381836040517fe450d38c00000000000000000000000000000000000000000000000000000000815260040161115a93929190611c46565b60405180910390fd5b8181036000808673ffffffffffffffffffffffffffffffffffffffff1673ffffffffffffffffffffffffffffffffffffffff16815260200190815260200160002081905550505b600073ffffffffffffffffffffffffffffffffffffffff168273ffffffffffffffffffffffffffffffffffffffff16036111f35780600260008282540392505081905550611240565b806000808473ffffffffffffffffffffffffffffffffffffffff1673ffffffffffffffffffffffffffffffffffffffff168152602001908152602001600020600082825401925050819055505b8173ffffffffffffffffffffffffffffffffffffffff168373ffffffffffffffffffffffffffffffffffffffff167fddf252ad1be2c89b69c2b068fc378daa952ba7f163c4a11628f55a4df523b3ef8360405161129d9190611489565b60405180910390a3505050565b600081519050919050565b600082825260208201905092915050565b60005b838110156112e45780820151818401526020810190506112c9565b60008484015250505050565b6000601f19601f8301169050919050565b600061130c826112aa565b61131681856112b5565b93506113268185602086016112c6565b61132f816112f0565b840191505092915050565b600060208201905081810360008301526113548184611301565b905092915050565b6000604051905090565b600080fd5b600080fd5b600073ffffffffffffffffffffffffffffffffffffffff82169050919050565b600061139b82611370565b9050919050565b6113ab81611390565b81146113b657600080fd5b50565b6000813590506113c8816113a2565b92915050565b6000819050919050565b6113e1816113ce565b81146113ec57600080fd5b50565b6000813590506113fe816113d8565b92915050565b6000806040838503121561141b5761141a611366565b5b6000611429858286016113b9565b925050602061143a858286016113ef565b9150509250929050565b60008115159050919050565b61145981611444565b82525050565b60006020820190506114746000830184611450565b92915050565b611483816113ce565b82525050565b600060208201905061149e600083018461147a565b92915050565b6000806000606084860312156114bd576114bc611366565b5b60006114cb868287016113b9565b93505060206114dc868287016113b9565b92505060406114ed868287016113ef565b9150509250925092565b600060ff82169050919050565b61150d816114f7565b82525050565b60006020820190506115286000830184611504565b92915050565b60006020828403121561154457611543611366565b5b6000611552848285016113b9565b91505092915050565b600080fd5b600080fd5b7f4e487b7100000000000000000000000000000000000000000000000000000000600052604160045260246000fd5b61159d826112f0565b810181811067ffffffffffffffff821117156115bc576115bb611565565b5b80604052505050565b60006115cf61135c565b90506115db8282611594565b919050565b600067ffffffffffffffff8211156115fb576115fa611565565b5b611604826112f0565b9050602081019050919050565b82818337600083830152505050565b600061163361162e846115e0565b6115c5565b90508281526020810184848401111561164f5761164e611560565b5b61165a848285611611565b509392505050565b600082601f8301126116775761167661155b565b5b8135611687848260208601611620565b91505092915050565b600080604083850312156116a7576116a6611366565b5b600083013567ffffffffffffffff8111156116c5576116c461136b565b5b6116d185828601611662565b92505060206116e2858286016113ef565b9150509250929050565b60006020828403121561170257611701611366565b5b600082013567ffffffffffffffff8111156117205761171f61136b565b5b61172c84828501611662565b91505092915050565b61173e81611390565b82525050565b60006020820190506117596000830184611735565b92915050565b6000806040838503121561177657611775611366565b5b6000611784858286016113b9565b9250506020611795858286016113b9565b9150509250929050565b7f4e487b7100000000000000000000000000000000000000000000000000000000600052602260045260246000fd5b600060028204905060018216806117e657607f821691505b6020821081036117f9576117f861179f565b5b50919050565b7f556e617574686f72697a65642100000000000000000000000000000000000000600082015250565b6000611835600d836112b5565b9150611840826117ff565b602082019050919050565b6000602082019050818103600083015261186481611828565b9050919050565b7f566f74696e672069732063757272656e746c792064697361626c656421000000600082015250565b60006118a1601d836112b5565b91506118ac8261186b565b602082019050919050565b600060208201905081810360008301526118d081611894565b9050919050565b7f4e487b7100000000000000000000000000000000000000000000000000000000600052603260045260246000fd5b7f596f7520617265206e6f7420616e20617574686f72697a656420766f74657221600082015250565b600061193c6020836112b5565b915061194782611906565b602082019050919050565b6000602082019050818103600083015261196b8161192f565b9050919050565b600081905092915050565b6000611988826112aa565b6119928185611972565b93506119a28185602086016112c6565b80840191505092915050565b60006119ba828461197d565b915081905092915050565b7f496e76616c696420766f746572206e616d652100000000000000000000000000600082015250565b60006119fb6013836112b5565b9150611a06826119c5565b602082019050919050565b60006020820190508181036000830152611a2a816119ee565b9050919050565b7f596f752063616e6e6f7420766f746520666f7220796f757273656c6621000000600082015250565b6000611a67601d836112b5565b9150611a7282611a31565b602082019050919050565b60006020820190508181036000830152611a9681611a5a565b9050919050565b7f4e487b7100000000000000000000000000000000000000000000000000000000600052601160045260246000fd5b6000611ad7826113ce565b9150611ae2836113ce565b9250828202611af0816113ce565b91508282048414831517611b0757611b06611a9d565b5b5092915050565b7f566f746520616d6f756e742065786365656473206c696d697421000000000000600082015250565b6000611b44601a836112b5565b9150611b4f82611b0e565b602082019050919050565b60006020820190508181036000830152611b7381611b37565b9050919050565b7f4e487b7100000000000000000000000000000000000000000000000000000000600052601260045260246000fd5b6000611bb4826113ce565b9150611bbf836113ce565b925082611bcf57611bce611b7a565b5b828204905092915050565b7f496e76616c696420636f64696e6f6d6521000000000000000000000000000000600082015250565b6000611c106011836112b5565b9150611c1b82611bda565b602082019050919050565b60006020820190508181036000830152611c3f81611c03565b9050919050565b6000606082019050611c5b6000830186611735565b611c68602083018561147a565b611c75604083018461147a565b949350505050565b6000611c88826113ce565b9150611c93836113ce565b9250828201905080821115611cab57611caa611a9d565b5b9291505056fea264697066735822122029fa40e5856601b73b827a7e404fef0112a145989df3de0f3a5e46205a75655264736f6c634300081c0033",
  "linkReferences": {},
  "deployedLinkReferences": {}
}